:020000040800F2
:1000000010070020A1010008A3270008852200088E
:10001000A1270008751300087729000800000000D8
:10002000000000000000000000000000A7270008FA
:100030007713000800000000A5270008A927000882
:10004000BB010008BB010008BB010008BB010008A0
:10005000BB010008BB010008BB010008BB01000890
:10006000BB010008BB010008BB010008BB01000880
:10007000BB010008BB010008BB010008BB01000870
:10008000BB010008BB010008BB010008BB01000860
:10009000BB010008BB010008BB010008BB01000850
:1000A000BB010008BB010008BB010008BB01000840
:1000B000BB010008BB010008BB010008BB01000830
:1000C000BB010008BB010008BB010008BB01000820
:1000D000BB010008BB010008BB010008BB01000810
:1000E000BB010008BB010008BB01000800F002F8DA
:1000F00000F047F80AA090E8000C82448344AAF17B
:100100000107DA4501D100F03CF8AFF2090EBAE878
:100110000F0013F0010F18BFFB1A43F0010318473B
:10012000DC2E0000FC2E0000103A24BF78C878C1F5
:10013000FAD8520724BF30C830C144BF04680C60ED
:10014000704700000023002400250026103A28BF35
:1001500078C1FBD8520728BF30C148BF0B60704739
:10016000662902F07A86002070471FB500F04AFB2E
:1001700004000020002102F06BFCE0601FBD10B500
:1001800010BD00F03FFC1146FFF7EFFF02F020FC2E
:1001900000F05DFC03B4FFF7F2FF03BC00F0A0FC2D
:1001A0000948804709480047FEE7FEE7FEE7FEE70B
:1001B000FEE7FEE7FEE7FEE7FEE7FEE70448054947
:1001C000054A064B70470000FD270008ED000008B7
:1001D0001001002010070020100300201003002051
:1001E0000FB41CB5074B06AA7B44694600900598DE
:1001F00000F0EFFA0020694600F0FEFA1CBC5DF842
:1002000014FB00000D0600002DE9F0474FF0000A36
:1002100089460446C0F820A02046E16888470028A7
:1002200076D0252806D0D4E901219047206A401CC9
:100230002062F1E7E168204600258847C4F81CA049
:1002400006460027C4F818A02A2E09D0304602F02E
:10025000B7FB38B304EB8708303EC8F8186019E0E4
:1002600059F8041B204604EB87029161E168884736
:10027000012F064618D1E069002820DA25F0200574
:100280001DE0D8F8180000EB800006EB4000303885
:10029000C8F818002046E1688847064602F090FB3F
:1002A0000028EED1012F0AD02E2E08D12046E16879
:1002B00088477F1C0646022F45F02005C4DBA06955
:1002C000002803DA404245F00105A061E80701D0AB
:1002D00025F01005B6B1A6F14100192802D8203644
:1002E00045F400654A463146204625604D46FFF7F5
:1002F00037FF58B1012806D0ED1D25F0070000F1A9
:10030000080989E704E005F1040985E730468AE732
:10031000206ABDE8F08710B5431C02E010F8011B0D
:1003200071B18107FAD14FF0013202C88C1A8C43A7
:1003300014EAC211F9D0C01A0A0603D0C01E10BDBB
:10034000C01A10BD0A0401D0801E10BD0902FCD0E5
:10035000401E10BD4FF0000200B51346944696466D
:10036000203922BFA0E80C50A0E80C50B1F12001C8
:10037000BFF4F7AF090728BFA0E80C5048BF0CC076
:100380005DF804EB890028BF40F8042B08BF7047D4
:1003900048BF20F8022B11F0804F18BF00F8012B46
:1003A000704770477047704770472DE9FF4F0C4604
:1003B0001E464FF0FF378BB0D2E90001DDF86080B8
:1003C0000A908A46C1F30A5505B93D460021084600
:1003D0004FF00000BAF1000F00F4400005DA00EB26
:1003E00080004FF4400101EA50004FEA9059B9F102
:1003F000010F00DDB9460A9850EA4A000ED044F6D3
:100400001050A5F2FF3545432F14B8F1000F1ED050
:100410007542291E1EDDC9F100021CE0B8F1010F72
:100420004FF0000001D0302103E0F24305E02154F9
:10043000401CB042FBDB30460022002121540B99C6
:10044000C1F80880C1E900200FB0BDE8F08FBD1BE6
:100450006D1CDEE74A4600DA694206A800F05CFA45
:1004600006AB93E8070003AB83E8070050460A9900
:1004700000F03DFB8DE80700A0F500501F3800900C
:100480000398002D0ADD42F21F014A46084400236A
:1004900003A90390684600F0A6FD09E0A0F500500E
:1004A0004A461F38002303A90390684600F0B0FDB8
:1004B0008DE807000004000C03D04FF0FF30410826
:1004C00000E01046B8F1000F03D00022009215465C
:1004D0001EE0751E05D400F099F9303262556D1E8C
:1004E000F9D5B3460122084302D000227F1C04E064
:1004F0002078302801D100227F1E002A099784D05D
:100500001DE0112D07DA00F081F9303262556D1CC3
:1005100050EA0102F5D1084302D00098C8B10EE0BC
:100520000021681E05E0235C625C63542254401E77
:10053000491C8142F7DBAB46A81B401E09900020F6
:1005400004F80B000B98099AC0F80880C0E9002B4A
:100550007AE711264FF0000857E72DE9F04F88465B
:100560000446D21D22F0070191B0D1E90001CDE986
:100570000A0102F001FA02460B98C00F01D02D20AB
:1005800007E02068810701D52B2002E0202101EA45
:10059000C000032A099001D0072A05DB0346414623
:1005A000204600F079F90BE12078800601D5E0695A
:1005B00000E00620B8F1650F814606D0B8F1660F5D
:1005C00018D0B8F1670F70D131E00020B9F1110FE8
:1005D000009001DB112301E009F101030AAA01A93E
:1005E0000CA8FFF7E2FEDDE90C70002609F1010519
:1005F000834647E001204B4600904FF000470AAA8F
:1006000001A90CA8FFF7D1FEDDE90DB00C995D46FC
:10061000002610B909F101000D18B9EB050003D44B
:10062000C0F1FF3609F10105A5EB09002BE0B9F196
:10063000010F01DA4FF001090020B9F1110F00900C
:10064000484601DD112300E003460AAA01A90CA8CF
:10065000FFF7ABFEDDE90C704D460026834620789F
:1006600000070AD4AB4500DA5D4601A8012D04DD80
:10067000411911F8011C302907D04F4502DA17F152
:10068000040F04DA012082460FE06D1EEEE7002F12
:1006900002DCED1B3E4403E0781CA84200DD7D1C1B
:1006A000B81B00F1010A4FF000472078000703D47F
:1006B000AA4501DB4FF0FF3A0021B7F1004F0DF1E1
:1006C00043088DF8431024D002202B23002F01DA99
:1006D0007F422D230A21021EA0F1010000DC5FB140
:1006E00097FBF1FC97FBF1F201FB1C7C17460CF128
:1006F000300C08F801CDEEE7A8F101000370218865
:10070000090501D5452100E06521A0F1010800F8A7
:10071000011C09980FA9A1EB0807FF1D00B10120DA
:10072000411901EBEA70A1693844081A401EA06122
:100730002078C00602D42046AFF30080099828B183
:10074000D4E901219047206A401C20622078C0062D
:1007500022D52046AFF300801EE0002E04DBB34517
:1007600002DD01A8805D00E03020D4E9012190473E
:10077000206A401C2062761CAAF101005FEA000A90
:100780000AD100F03FF8C0680168405CD4E901215B
:100790009047206A401C2062281EA5F10105DCDC80
:1007A00007E0D4E9012118F8010B9047206A401CAA
:1007B0002062381EA7F10107F3DC2046AFF300806A
:1007C000032011B041E6000001694A1C026108786B
:1007D000704700B58FB0CDE9013100210591054981
:1007E0007944CDE9031011466846FFF70DFD0FB0BF
:1007F00000BD0000E5FFFFFF0A6802F8010B0A6078
:100800007047000000487047CC00002030B5B0F1C0
:100810000A024FEA900E71F100034EEA817EB0EBBE
:100820000E0061EB91014FEA101E4EEA017E10EBC3
:100830000E0041EB11114FEA102E4EEA016E10EB43
:100840000E0041EB11214FEA104E4EEA014E10EB23
:100850000E0041EB1141401841F100014FEAD00078
:1008600040EA41704FEAD10110EB80054FEA810464
:1008700044EA907444EB01046D1944EB0404521BE8
:10088000A3414FF0000348BF0A3200D530BD401CE1
:1008900041F1000130BD00002DE9F0411F46044642
:1008A00003260168072A01F4006004DB08B116A5DD
:1008B00005E016A503E008B115A500E015A521F097
:1008C00010002060A069C01EA0610FB1401EA06191
:1008D0002046AFF300804FB1D4E90121384690475C
:1008E000206A401C2062C01C206206E0206AFAE7F1
:1008F000D4E9012115F8010B9047761EF8D2204665
:10090000AFF30080BDE8F0814E414E006E616E0095
:10091000494E4600696E66002DE9F047814616464D
:100920008AB0354878440DC88DE80D0032487844C7
:10093000801C03AC0DC884E80D0041F69B300844D0
:10094000372190FBF1F290FBF1F5A5F1800501FB59
:1009500012041B3C02D56442012000E00020DFF8B5
:1009600098A080460027FA44AAF1BE0A0EE0E007EC
:100970000AD03246684607EB470101230AEB8101A2
:1009800000F046FB8DE8070064107F1C002CEED1C0
:10099000194F7F44AE3F19E0E80715D007EB04106C
:1009A0000DF1180A90E80E008AE80E00C068F042C7
:1009B00001D1981908903246012306A903A800F036
:1009C00027FB03AB83E807006D10641C002DE3D107
:1009D0004FF0010332466946B8F1000F03A802D078
:1009E00000F001FB01E000F013FBC9E90001C9F8C8
:1009F00008200AB0BDE8F087BC2600000048704718
:100A0000AC0000207546FFF7F9FFAE4605006946C9
:100A1000534620F00700854618B020B5FFF7CEFBFF
:100A2000BDE820404FF000064FF000074FF00008EF
:100A30004FF0000B21F00701AC46ACE8C009ACE870
:100A4000C009ACE8C009ACE8C0098D46704710B5D4
:100A50000446AFF300802046BDE81040FFF79ABB84
:100A60004FF0013C50F8042B51F8043B9A4221D13D
:100A7000A2EB0C03934313EACC1317D150F8042BC9
:100A800051F8043B9A4215D1A2EB0C03934313EAAD
:100A9000CC130BD150F8042B51F8043B9A4209D1E6
:100AA000A2EB0C03934313EACC13DBD04FF000000E
:100AB000704700BFD01A01BAB1FA81F101F01801F4
:100AC00022FA01F0CB40C1F12001DBB2C0B2C01A62
:100AD0002CFA01F3D11A914311EAC311E6D1704700
:100AE00001491820ABBEFEE72600020070475FEA0E
:100AF000400C08BF91F0000F4FEA8C234FEAC1224F
:100B000043EA51514FEA1C5018BF00F5F0404FEA3C
:100B1000300018BF41F000415FEA6C5C00F02980B2
:100B2000BCF1FF3F08BF40F080407047130C06BF88
:100B300012044FF0100C4FF0000C130E04BF120201
:100B40000CF1080C130F04BF12010CF1040C930FED
:100B500004BF92000CF1020CD30F04BF52000CF141
:100B6000010C11464FF00002A0F11F00A0EB0C0099
:100B7000704711F0004F08BF704731F000413FF45B
:100B8000D5AF0B0C06BF09044FF0100C4FF0000C52
:100B90000B0E04BF09020CF1080C0B0F04BF090176
:100BA0000CF1040C8B0F04BF89000CF1020CCB0F6D
:100BB00004BF49000CF1010CCCF12003A0EB0C00A8
:100BC00022FA03F302FA0CF241EA030100F10100F8
:100BD000704720F07F4C80EA030023F07F47ACEBA6
:100BE000070303F57C5300F0004003F1FF032DE9F8
:100BF00080494FEA154B09B44FEA144325EA0B4EDE
:100C000024EA03480FF2042606EB132749083E782E
:100C10005FEA320203FB0667C7F5000707FB06F62B
:100C20004FEA54374FEAD64606F1020607FB066C38
:100C3000CCF1005C4FEA1C472CEA074C07FB06F49A
:100C40000CFB06F504EB15464FEA961634BF002060
:100C50004FF000404FEAD13706FB07FC4FEA1C4C2F
:100C60000CFB0BF7D21B03FB0CF761EB07010CFB32
:100C70000EF7B0EB074072EB17420CFB08F734BFDE
:100C8000A2EB0742B2EB074261EB17414FEA0C447B
:100C90004FEA910706FB07FC4FEA1C4C0CFB0BF7D5
:100CA000B0EBC74072EB573203FB0CF734BFA2EB3B
:100CB000C742B2EBC74261EB57310CFB0EF7B0EB0A
:100CC000C70072EB57720CFB08F734BFA2EBC702E8
:100CD000B2EBC70261EB5771039F4FEA816141EAB2
:100CE000921104EBCC044FEAD1374FEA826206FB43
:100CF00007FC42EA90124FEA80604FEA1C4C0CFB62
:100D00000BF7D21B03FB0CF761EB07010CFB0EF793
:100D1000B0EB074072EB17420CFB08F734BFA2EBB5
:100D20000742B2EB074261EB17414FEA8C554FEA9D
:100D3000910704EB9C2406FB07FC4FEA1C4C0CFBC0
:100D40000BF7B0EBC74072EB573203FB0CF734BF25
:100D5000A2EBC742B2EBC74261EB57310CFB0EF777
:100D6000B0EBC70072EB57720CFB08F734BFA2EB75
:100D7000C702B2EBC70261EB577115EB4C254FEA86
:100D8000816141EA92114FEA82624FEAD13742EA29
:100D9000901206FB07FC44F100044FEA80604FEA22
:100DA0001C4C0CFB0BF7D21B03FB0CF761EB070190
:100DB0000CFB0EF7B0EB074072EB17420CFB08F789
:100DC00034BFA2EB0742B2EB074261EB174115EBD0
:100DD0001C154FEA813141EA92414FEA823242EAE0
:100DE00090424FEA80304FEA0C7644F1000448EA22
:100DF00003434EEA0B484FF0000EB2EB080C71EBC8
:100E0000030724BF624639464EEB0E0E4FF0000B2F
:100E10000018524149414BEB0B0BB2EB080C71EB44
:100E200003077BF1000B24BF624639464EEB0E0EE2
:100E30004FF0000B0018524149414BEB0B0BB2EB4A
:100E4000080C71EB03077BF1000B24BF62463946A7
:100E50004EEB0E0E51EA020718BF46F0010616EBE4
:100E60000E7655F1000254F1000103D5BDE8890169
:100E7000BDE80088BDE88901BDE80048B6195241C7
:100E800041EB0101A3F10103704780807F7E7D7CEF
:100E90007B7A7978777676757473727171706F6E0C
:100EA0006E6D6C6C6B6A6A696868676666656464B7
:100EB000636362616160605F5F5E5E5D5D5C5C5B41
:100EC0005B5A5A59595858575756565555555454B0
:100ED000535352525251515050504F4F4F4E4E4D0E
:100EE0004D4D4C4C4C4B4B4B4A4A4A49494948485A
:100EF000484747474746464645454544444444439A
:100F000043434342424242414141002B9C4630D43C
:100F100077002BD01CB54FEA370703B44FF0100011
:100F20004FF01001BAF1000F06D0BCF1000FDCBF8A
:100F300040F0080040F008014FF000000FBCBDE891
:100F400010400BF1010BBBF1010F08BF5FEA17075F
:100F500022BF12F1010211F101014FF0004143F1F2
:100F6000000300F0004043EA00007047F9D357083F
:100F7000D0E746EA064613F1400F4FEA16461FDD5A
:100F800013F1200FDFBF16430A46002120335B42D6
:100F9000BED0C3F1200746EA064602FA07F74FEA39
:100FA000164646EA0706C3F1200722FA03F201FAC1
:100FB00007F721FA03F14FF0000342EA0702A7E71F
:100FC00046EA020646EA06464FEA164646EA0106A1
:100FD000BCBF46EA0646360C4FF000034FF0000255
:100FE0004FF0000194E72DE9804C9A46934670B487
:100FF00091E8380007C831EA400C48BF34EA430C96
:1010000003D5FFF7E6FDFFF780FFF0BCBDE8008CDD
:101010002DE9804C9A46934670B491E8380007C891
:1010200010F0804F08BF13F0804F03D100F005F897
:10103000FFF76BFFF0BCBDE8008C20F07F4780EA33
:10104000030023F07F4C07EB0C03A3F57C5300F067
:101050000040A3F1FE0392F0000F00F0B38095F082
:10106000000F00F077802DE901494FEA11404FEA67
:10107000144621EA004800FB06FC24EA064708FB68
:1010800006F607FB08F800FB07F718EB06484CEBE1
:10109000164C4FEA124B18EB07484FEA15464CEB3B
:1010A000174022EA0B4E0BFB06FC25EA06470EFB17
:1010B00006F607FB0EFE0BFB07F71EEB064E4CEB8E
:1010C000164C4FF000061EEB074E4CEB174B18EB7F
:1010D0000B0840F1000018EB0E0B58EB000840F134
:1010E00000008F1A4FF000013CBFC943661B14BFBC
:1010F000B5EB040C00213CBFC943F61B4FEA174473
:101100004EEA8E0E27EA04454FEA1C4704FB0762AD
:101110002CEA074C05FB07F70CFB05F604FB0CFC5F
:1011200016EB074642EB174216EB0C4642EB1C420D
:101130001BEB060658EB0202414146EA9E0601D52A
:10114000BDE80189B619524141EB0101A3F1010348
:10115000BDE801894FEA14454FEA114724EA0546E4
:1011600021EA074C05FB07F406FB07F70CFB06F129
:1011700005FB0CFC11EB074144EB17444FEA124707
:1011800011EB0C4144EB1C4422EA074C05FB07F22F
:1011900006FB07F70CFB06F605FB0CFC16EB0746F7
:1011A00042EB174216EB0C4642EB1C456A1854F111
:1011B000000148BF7047B619524141EB0101A3F14C
:1011C0000103704795F0000F37D04FEA11424FEA04
:1011D000144721EA024624EA074C02FB07F106FB0A
:1011E00007F70CFB06F402FB0CFC14EB074441EB85
:1011F00017414FEA154714EB0C4441EB1C4125EA1B
:10120000074C02FB07F506FB07F70CFB06F602FB93
:101210000CFC16EB074645EB174516EB0C4645EB69
:101220001C42121951F1000148BF7047B6195241D2
:1012300041EB0101A3F1010370474FEA14454FEA66
:10124000114724EA054621EA074C05FB07F106FB96
:1012500007F70CFB06F24FF0000605FB0CFC12EB47
:10126000074241EB174112EB0C4251EB1C4148BFC6
:101270007047921841EB0101A3F101037047000090
:101280003EB50FA000680290282000F077F84FF0DC
:10129000FF34012301AA70210A48009400F040FAAB
:1012A0009DF80400000709D4032302AA7021054811
:1012B000009400F05DFB0A2000F060F83EBD0000E5
:1012C000BE080000100000207FB5054624A00C4693
:1012D00000684FF0FF360390032303AA70210096A5
:1012E000204800F045FB502000F048F8062301AAF2
:1012F00070211C48009600F013FA9DF804000006C7
:101300002CD49DF807009DF80610000900EB011091
:101310009DF8051000EB013001F04AFC124901F084
:101320005BFC6FF01306314601F0CBFD20609DF8A9
:1013300007009DF808100007000B00EB01209DF846
:101340000910084401F034FC084901F045FC31461D
:1013500001F0B7FD064901F00BFD28607FBD0000DC
:10136000AC330000100000200000C84200004843D9
:1013700000004842FEE7704772B6FEE770B50446CB
:1013800000F004F90546601C02D0044800780444CB
:1013900000F0FCF8401BA042FAD370BD0000002012
:1013A0002DE9F84FDFF8B8910024A9F1040B23468A
:1013B0000F2709F1040AABF1040EC9E00125A5408D
:1013C0002A40AA427DD1674ED1F804C0ACEB060892
:1013D000B44532D014DCBCF1030F3AD009DCBCF1C7
:1013E000000F2AD0BCF1010F1CD0BCF1020F31D18B
:1013F0001DE0BCF1110F17D0BCF1120F2AD119E07A
:10140000B8F5881F19D006DCB8F5803F15D0B8F5BF
:10141000801F1FD111E0B8F5001F0ED0B8F5041FD2
:1014200018D10AE0CB6815E0CB681B1D12E0CB6831
:1014300008330FE0CB680C330CE08B682BB1012B29
:101440004FF0080303D0456104E0042302E0056186
:1014500000E00023FF2A01D8064601E000F104065F
:101460004FEA840501D9A5F12005D6F8008007FAD6
:1014700005FC28EA0C0803FA05F548EA0508C6F851
:1014800000804D68ED0062D5374DAE6946F001062B
:10149000AE61AD6924F0030605F001050095334DFA
:1014A00006EB050CDCF80850A607360F07FA06F81D
:1014B00025EA0805DFF8B880404503D14FF0000861
:1014C00017E044E0DFF8AC80404502D14FF001085E
:1014D0000FE0DFF8A480404502D14FF0020808E099
:1014E000DFF89880404502D14FF0030801E04FF04B
:1014F000040808FA06F848EA0508CCF808804D68A0
:10150000D9F80060ED024D4601D5164300E0964340
:101510002E604D68DAF80060AD02554601D51643DD
:1015200000E096432E604D68DBF80060AD035D4639
:1015300001D5164300E096432E604D68DEF800604A
:10154000ED03754601D5164300E096432E60641CFA
:101550000D682A46E5407FF431AFBDE8F88F000002
:10156000080401400000111000100240000001407A
:1015700000080140000C014000100140001401402F
:101580000AB1016170470904FBE700000148806867
:10159000704700000000002070B5040025D094F8CA
:1015A0003D00002520B984F83C50204600F076FA32
:1015B000242084F83D002068016821F001010160C9
:1015C0002068016841F4004101602068016821F44D
:1015D0000041016000F0B2FB4D4A6168914201D8C0
:1015E0004C4900E04C49884201D2012070BD4B4972
:1015F0002368B0FBF1F15E6826F03F060E435E60A3
:101600006368934206D94FF4967359434FF47A7343
:10161000B1FBF3F12368491C1E6A26F03F063143F3
:1016200019626168914210D84900401EB0FBF1F286
:10163000521CC2F30B02042A01D2042022E0B0FBA8
:10164000F1F0401CC0F30B001CE0A268F2B301EB08
:10165000C10303EB0116431EB3FBF6F35B1C43F41B
:1016600080431B0549D092B301EBC10202EB01118B
:10167000401EB0FBF1F0401CC0F30B0040F4804072
:1016800040F400402168CA694CF6FF739A43104346
:10169000C861D4E9071001432068026822F0C00243
:1016A00011430160D4E9030101432068826848F2D4
:1016B000FF339A4311438160D4E90501084321684F
:1016C000CA6822F0FF021043C86001E00EE016E095
:1016D0002068016841F0010101602564202084F840
:1016E0003D00256384F83E50002070BD01EB4106AB
:1016F000431EB3FBF6F35B1CB3E70120C2E701EB2B
:101700004101401EB0FBF1F0401CC0F30B00B7E7F5
:10171000A086010080841E0000093D0040420F00A9
:101720002DE9F84F0025DDF82890984617468A469F
:1017300004460095FFF72AFF064694F83D0020284E
:101740007AD11923012286492046009600F0A2FE94
:101750000028F5D194F83C0001286DD0012084F8D0
:101760003C0020680168C90703D1016841F001010C
:1017700001602068016821F400610160222084F882
:101780003D00102084F83E0025646762A4F82A809A
:10179000608D20857348E06233464A4651462046B4
:1017A00000F088FD00287CD1208DDFF8BC81202747
:1017B00068B1012814D00228206801681ED041F4C5
:1017C000806101602068416980690090BBE0206809
:1017D000416981690091016841F400710160B2E0E2
:1017E0002068016821F48061016072B62068416957
:1017F00081690091016841F400710AE041F40061DF
:10180000016072B62068416981690091016821F424
:101810008061016062B696E0032865D801280CD08B
:1018200002284B464FF000024146204600960BD05E
:1018300000F030FEA8BB0CE090E03246494620465E
:1018400000F0CEFE68BB71E000F024FE48BB72B62B
:1018500033E02068016821F48061016072B620687D
:101860000069616A0870606A401C6062208D401ED9
:101870002085608D401E60853C4846F2A8110068B6
:10188000B0FBF1F0C0EBC00000EB80000090401E08
:10189000009007D020684069C04340070DD50098EC
:1018A000F5E727E044F8305F6773A573206940F0DF
:1018B0002000206162B625731CE02068016841F4B5
:1018C0000071016020680069616A0870606A401CEC
:1018D0006062218D491E2185618D491E618562B638
:1018E00021680969017025E032464946204600F02A
:1018F00077FE10B10120BDE8F88F20680069616AA9
:101900000870606A401C6062208D401E81B2218593
:10191000608D401E608520684269D243520712D410
:10192000032903D1016821F4806101602068006906
:10193000616A0870606A401C6062208D401E2085CC
:10194000608D401E6085208D00287FF465AF84F88F
:101950003D7084F83E5084F83C50CCE70220CAE742
:10196000020010000000FFFF040001000C00002036
:101970002DE9F84F1F4690468A460446DDF8289028
:10198000FFF704FE054694F83D0020287FD1192377
:10199000012240492046009500F07CFD002876D1C8
:1019A00094F83C00012872D0012084F83C002068A3
:1019B0000168C90703D1016841F001010160206895
:1019C000016821F400610160212084F83D001020AD
:1019D00084F83E0000262664C4F824806785608D64
:1019E00020852D48E0622B464A465146204600F0AD
:1019F000D7FC90B9206841698069009036E02A469A
:101A00004946204600F024FE50B1206C042804D141
:101A10002068016841F4007101600120BDE8F88F81
:101A2000606A216800780861606A401C6062618DAC
:101A3000491E6185218D491E89B22185226853691D
:101A4000DB435B070BD451B100781061606A401C26
:101A50006062608D401E6085208D401E20852A4674
:101A60004946204600F0EAFC0028CED1208D00280F
:101A7000C5D154F83D0B016841F40071016020208C
:101A800004F81E09E67766770020C7E7FFE7022023
:101A9000C4E70000020010000000FFFF10B586B090
:101AA0000021009101910291039100681049884240
:101AB0001BD1104CA06940F00800A061A0696946E4
:101AC00000F0080004904FF4406000901220019054
:101AD000032003900848FFF763FCE06940F48000AE
:101AE000E061E06900F48000049006B010BD0000E1
:101AF0000058004000100240000C0140024881687C
:101B0000027811448160704700000020074810B53A
:101B1000016841F010010160032000F067F80F2018
:101B200000F006F800F024F8002010BD002002406C
:101B300070B50D4D04464FF47A712878B1FBF0F082
:101B40000A490968B1FBF0F000F0CEFA48B9102C50
:101B500007D200222146501E00F028F800206C60B9
:101B600070BD012070BD0000000000200C000020AE
:101B70000C4808B5816941F001018161816901F07A
:101B800001010091C16941F08051C161C06900F05B
:101B9000805000900448416821F0E06141F00071FC
:101BA000416008BD0010024000000140F0B40E4B3F
:101BB0001B680C46C3F30223C3F10705042D00D9AB
:101BC0000425191D072901D2002300E0DB1E012690
:101BD00006FA05F1491E214099409E40761E1640A6
:101BE0003143F0BC00F0DCBE0CED00E0064900F033
:101BF000070208684FF6FF03184040EA0220034A34
:101C000010430860704700000CED00E00000FA058A
:101C10002DE9F0470F46050061D0434E306800F0D3
:101C20000700B84209D2306820F00700384330601E
:101C3000306800F00700B84251D128683B4C81075A
:101C400012D5400703D5606840F4E06060602878F2
:101C5000000703D5606840F4605060606068A96860
:101C600020F0F000084360602878C00728D068683A
:101C7000012810D02168022810D0890700292EDA07
:101C8000616821F0030101436160FFF77FFC80463A
:101C900041F288390DE021688903EFE78901EDE71A
:101CA000FFF774FCA0EB0801494502D90320BDE809
:101CB000F0876068696800F00C00B0EB810FEFD12D
:101CC000306800F00700B8420BD9306820F00700F8
:101CD00038433060306800F00700B84201D001207E
:101CE000E5E72878400705D56068E96820F4E060FA
:101CF000084360602878000706D56068296920F4E9
:101D0000605040EAC100606000F038F86168084A3D
:101D1000C1F30311515CC8400649086006480068D9
:101D2000FFF706FF0020C2E700200240001002403B
:101D3000502F00080C000020040000200448054932
:101D400000684968044AC1F30221515CC8407047E9
:101D50000C00002000100240602F000804480549D4
:101D600000684968044AC1F3C221515CC840704709
:101D70000C00002000100240602F00080E4A51683D
:101D80000E4801F00C03042B11D0082B0FD10C4886
:101D9000C1F38343C903C05C0AD55168084AC1F343
:101DA0004041921E515C054A5043B0FBF1F0704730
:101DB00004494843704700000010024000127A00B6
:101DC000402F000800093D002DE9F84F040070D0B5
:101DD0002078C04DC00749D06868C0F38100012851
:101DE00007D06868C0F38100022809D16868C00381
:101DF00006D52868800339D560680028E7D035E02B
:101E00006068B0F5803F0BD010B1B0F5A02F11D0B5
:101E1000286820F480302860286820F4802002E0C0
:101E2000286840F480302860606890B1FFF7AEFB0E
:101E300006460AE0286840F480202860F0E700BFEA
:101E4000FFF7A4FB801B642873D828688003F7D5AC
:101E50000CE0FFF79BFB064605E000BFFFF796FB93
:101E6000801B6428F0D828688003F7D420789A4E25
:101E700080074FF001094FF0000839D5686810F06D
:101E80000C0F07D06868C0F38100022809D1686888
:101E9000C00306D42868800714D52069012808D11A
:101EA00010E02069B0B1C6F80090FFF76FFB07465D
:101EB00005E00AE1FFF76AFBC01B0228C4D82868C6
:101EC0008007F7D52868616920F0F80040EAC10072
:101ED00028600DE0C6F80080FFF758FB074604E0D5
:101EE000FFF754FBC01B022823D828688007F7D4CB
:101EF000207800072CD57948A169D9B1C0F80090A5
:101F0000FFF744FB074604E0FFF740FBC01B022835
:101F10000FD8686A8007F7D571484FF4FA51006806
:101F2000B0FBF1F0009000BF0098411E0091FAD282
:101F30000EE080E0C0F80080FFF728FB074604E0D1
:101F4000FFF724FBC01B022875D8686A8007F7D406
:101F50002078400760D5E8690027C00008D4E86908
:101F600040F08050E861E869012700F0805000905F
:101F70005C480168C90513D40168834641F4807147
:101F80000160FFF703FB824606E000BFFFF7FEFAA1
:101F9000A0EB0A0064284ED8DBF80000C005F5D598
:101FA000E06801280AD008B1052813D0286A20F07B
:101FB00001002862286A20F0040002E0286A40F04C
:101FC00001002862E06841F2883B98B1FFF7DEFA31
:101FD00082460BE0286A40F004002862EEE700BF6A
:101FE000FFF7D4FAA0EB0A0159455AD8286A8007AE
:101FF000F6D50CE0FFF7CAFA824605E0FFF7C6FA0D
:10200000A0EB0A0159454CD8286A8007F6D41FB1C5
:10201000E86920F08050E861E06988B36968C1F33D
:102020008101022944D00228C6F8608004D0FFF75D
:10203000ADFA044638E034E0FFF7A8FA074604E0BA
:10204000FFF7A4FAC01B02282BD828688001F7D418
:10205000206AB0F5803F05D16868A16820F400309F
:1020600008436860D4E908010843696821F47411E1
:1020700008436860C6F86090FFF788FA044606E0F7
:1020800025E000BFFFF782FA001B022809D8286864
:102090008001F7D51BE000BFFFF778FA001B02288C
:1020A00002D90320BDE8F88F28688001F4D40EE03F
:1020B0000128F7D06868226A00F48031914204D187
:1020C000616A00F47010884201D00120EAE7002024
:1020D000E8E7000000100240000042428004424253
:1020E0000C0000200070004010B5401EB0F1807F51
:1020F00001D3012010BD4FF0E02460610F21601773
:1021000000F04EFC0020A06107202061002010BDDF
:1021100070B5040004D094F84100002510B106E029
:10212000012070BD84F84050204600F023F82420A0
:1021300084F841002068C16821F40051C160204644
:1021400000F084FB2068016921F49041016120685E
:10215000416921F02A0141612068C16841F40051C0
:10216000C1606564202084F8410084F84200656302
:10217000002070BD30B585B0002400940194029415
:10218000039400681449884224D11448816941F4B9
:1021900080418161816901F480410491816941F04C
:1021A0000401816180690E4D00F0040004904FF439
:1021B0000070009002200190032003906946284699
:1021C000FFF7EEF82815CDE9000469462846029489
:1021D000FFF7E6F805B030BD0038014000100240BE
:1021E000000801402DE9F843044690F84100984664
:1021F00016460D46202802D00220BDE8F88385B19E
:102200007EB100206064212084F84100FFF7BEF910
:10221000A6848146E684A0682027B0F5805F02D0BE
:1022200003E00120E9E7206910B12E4600250EE009
:1022300000260CE08021204600F064FBA8B9C6B15E
:1022400016F8010B21684860E08C401EE084E08CA9
:102250004B464FF00002CDF800800028EAD14FF045
:102260004001204600F04EFB40B184F8417003204D
:10227000C3E735F8020BC0F30800E3E784F84170C8
:102280000020BAE7FEE701684A69D24352050FD43D
:102290006FF480624A61002140F8301F20224273AF
:1022A0008173026942F004020261017301207047E8
:1022B000002070472DE9F84F0446C06A1E46934639
:1022C0000D4621680A6842F480620A60082807D037
:1022D000012805D010F5803F02D0206B112804D1D1
:1022E0002068016841F4807101604FF001195B467C
:1022F000002249462046009600F0CCF84FF40078C2
:1023000040B120680068C00501D5C4F840800320B2
:10231000BDE8F88F2069DFF884A0B0F5804F0FD0BA
:102320000620216800EAD51747F0F000086133461F
:102330005A460AF10601204600F0F4F858BB03E0C3
:10234000E8B240F001001CE02168E8B208613346C1
:102350005A465146204600F0E5F8E0B92068416948
:1023600081690091016841F4807101605B4600223F
:1023700049462046009600F08DF80028C1D147F06C
:10238000F1002168086133465A465146204600F064
:10239000C9F80028BCD00120BAE700000200010003
:1023A000F8B50446C06A1E460D461746082807D0F1
:1023B000012805D010F5803F02D0206B122804D1EF
:1023C0002068016841F480710160134600224FF0DB
:1023D00001112046009600F05DF840B120680068C9
:1023E000C00502D54FF4007020640320F8BD2069B9
:1023F000B0F5804F0ED00620216800EAD51040F0DD
:10240000F000086133463A460B49204600F08AF84E
:1024100078B902E005F0FE0000E0E8B2216808614A
:10242000054933463A46891F204600F07BF80028CC
:10243000DCD00120F8BD00000800010070B5164690
:102440000D4604461EE02046FFF71DFF08B101209F
:1024500070BD681C16D0FFF799F8801BA84200D801
:1024600085B920684069C04340070BD5002044F877
:10247000300F20216173A073216941F02001216197
:102480002073E4E720684069C0434007DBD40020A4
:1024900070BD00002DE9F047984617460D460446EA
:1024A000C1F30746DDF820902AE000BFB8F1FF3FF6
:1024B00026D0FFF76BF8A0EB0901414502D8B8F12F
:1024C000000F1DD12068012E16D0806925EA00007A
:1024D0000004000C12D00020B84211D1002044F8B2
:1024E000300F20216173A073216941F02001216127
:1024F00020730120BDE8F0874069E7E70120EBE7A2
:102500002068012E0AD0806925EA00000004000C32
:1025100006D00020B842C9D00020EBE74069F3E7BD
:102520000120F7E72DE9F047984616460D46044688
:102530004FF000094FF0200AC1F3074723E020685D
:102540004069C043400515D42068016841F400711A
:10255000016021686FF480604861C4F8309084F8AD
:102560003DA084F83E90216C41F00401216484F880
:102570003C9021E0701C06D0FFF708F8A0EB0800A3
:10258000B04203D816B1012F1FD021E02068012FDF
:1025900015D0806925EA00000004000C18D000BFA7
:1025A00044F8309F84F80DA084F80E90216941F022
:1025B0002001216184F80C900120BDE8F08740697A
:1025C00025EA00000004000CEAD12068406901E01F
:1025D0002068806925EA00000004000CAFD1ECE718
:1025E0002DE9F041002590460E460446202728E0BC
:1025F0004069C043C0060CD454F8301B6FF0100083
:10260000486144F810596777A577206A20622577DA
:1026100014E0FEF7BBFFA0EB0800B04200D886B97B
:1026200020684069C04340060BD544F8305F6773AB
:10263000A573206940F02000206125730120BDE8CA
:10264000F08120684169C9434906D1D40020F6E7EA
:1026500070B516460D4604461EE02046FFF713FEF1
:1026600008B1012070BD681C16D0FEF78FFF801BDB
:10267000A84200D885B920684069C04300060BD540
:10268000002044F8300F20216173A073216941F0CC
:10269000200121612073E4E720684069C0430006FF
:1026A000DBD4002070BD000030B585B000241C488C
:1026B0000094019402940394816941F010018161B6
:1026C000816901F010010491816941F0200181616B
:1026D000816901F020010491816941F00401816167
:1026E000816901F004010491816941F0080181616F
:1026F00080690C4D00F0080004900022102128464B
:10270000FEF73EFF102000900120CDE901040220D9
:10271000039069462846FEF743FE05B030BD000031
:1027200000100240000801400D4810B50B4901603F
:102730000C49416000214FF480428160C0E90312DE
:1027400041618161C1610162FEF726FF002803D06B
:10275000BDE81040FEF710BE10BD0000005800405C
:1027600010000020A08601000C4810B50A49016045
:102770004FF4E1314160002181600C22C160C0E969
:1027800004128161C161FFF7C3FC002803D0BDE8DA
:102790001040FEF7F1BD10BD00380140640000207C
:1027A000FEE7FEE770477047FFF7A8B910B590B095
:1027B00028216846FDF7CEFD14210AA8FDF7CAFDC1
:1027C000022000900120049010200024059007941E
:1027D0006846FFF7F9FA08B172B6FEE70F20CDE9B7
:1027E0000A040C940D9400210AA80E94FFF710FA25
:1027F000002801D072B6FEE710B010BD7047016826
:102800000C3151E8002F22F4907241E80023002B94
:10281000F5D10168143151E8002F22F0010241E89E
:102820000023002BF5D1016B012909D101680C317E
:1028300051E8002F22F0100241E80023002BF5D1CF
:10284000202180F8421000210163704770B50446D2
:1028500000680169E26821F4405111430161216976
:10286000A0680843616908432168CA6841F20C63A3
:102870009A430243CA6020684169A26921F4407109
:10288000114341611E492068884202D1FFF766FA70
:1028900001E0FFF753FA00EBC00101EB00126068A2
:1028A00064218000B2FBF0F3B3FBF1F36FF0180684
:1028B0007343B2FBF0F5B2FBF0F605EB8305322370
:1028C00003EB0515B5FBF1F5B6FBF1F605F0F005E8
:1028D00005EB0615B2FBF0F6B2FBF0F0B0FBF1F041
:1028E0006FF01802504306EB800003EB0010B0FBC2
:1028F000F1F0216800F00F002844886070BD0000EE
:10290000003801402DE9F843984617460D46044625
:10291000089E24E0701C22D0FEF738FEA0EB0800D1
:10292000B0421AD8CEB12068C168490717D5802DAA
:1029300015D0402D13D00168C94309070FD4016891
:102940000025406800902046FFF759FF082060648A
:1029500084F840500120BDE8F8830320FBE720689D
:10296000006835EA000004D00020B842D2D0002030
:10297000F1E70120F9E7FEE7490050EAC12018BF5E
:1029800004204A0D18BF40F0010040F2FF72B2EB84
:10299000515F08BF40F00200012808BF05207047C2
:1029A0000907090E002804DB00F1E02080F800147C
:1029B000704700F00F0000F1E02080F8141D704710
:1029C00030380A2801D201207047002070470000EB
:1029D00092B0FFF79BF8FFF7E9FEFFF765FEFFF700
:1029E000A3FEFFF7C1FEFEF74BFC4FF0FF364FF49E
:1029F000FA6710A90FA8FEF767FC109800F044F8DA
:102A000004460D460F9800F03FF802460B4609A118
:102A100002A8CDE90045FDF7E3FB02A8FDF77BFC2A
:102A200082B2334602A90948FFF7DCFB3846FEF7BD
:102A3000A5FCDEE73F3F3A252E31663F2C3F3F3A6B
:102A4000252E31662025250D0A0000006400002097
:102A500010B500290AD00878002807D00548784426
:102A6000FDF7FEFF002801D0002010BD0248784489
:102A700010BD0000BE050000B60500000808A0F566
:102A800000114FEA3101704743004FEAD30C4FEA7F
:102A90003C0C43401FBF40070CF1605113F0FE4F48
:102AA00070471CF0006F03D100200CF0004170470C
:102AB0000CF0004343EA507010B540EACC0000F03F
:102AC0000CF900BF000000924FEA0001FFF7D6BFEB
:102AD0004FF000414FF00000A1F5002170470000C9
:102AE00090EA010F48BF81F0004100F14881421A8D
:102AF0003CBF801A89184FEAD0524FF07F4C1CEA35
:102B0000410FA2EBD15318BF9CEA026F00F03B804B
:102B10004FF0004C4CEA00204CEA012121FA03FC62
:102B200010EB0C0C1ED202F1FF325FEA1C2040EBCE
:102B3000C25038BF70471CF07F0F4FEA400C18BFDF
:102B4000BCF17F4F38BF7047C3F12003994008BFE5
:102B500020F00100BCF17F4F38BF7047A0F1C040AA
:102B600000F001B94FEA3C00000A40EBC25028BF18
:102B70001CF0FF0F4FEA400CE6D018BFBCF17F4FAE
:102B800038BF7047EAE79CEA026F05D010EA5C0F95
:102B900008BF00F00040704710B500F09EF800BF7D
:102BA00064FBBE3E014800F05AB900BF0000C07F80
:102BB000B0FA80F310FA03F2C3F19D030AD0D905ED
:102BC00001EB1220530638BF704700F1010008BF27
:102BD00020F00100704700004FF47F0C1CEAD01277
:102BE0001EBF1CEAD11392EA0C0F93EA0C0F00F0FF
:102BF000478090EA010F48BF42F480724FF0004CCA
:102C00004CEA00204CEA012102EB0302A0FB011375
:102C1000A2F50002002918BF43F001035B0028BFA2
:102C20004FEA330342EB22425FEA132C4CEBC250D3
:102C30002EBFBCEB436FB2F57C0F70474FEA036CBD
:102C4000BCF1004F08BF20F00100B2F57C0F38BF87
:102C500070470BD582F0FF0212F5803FC8BF704766
:102C600000F1C040D8BF00F00040704700F5000CF4
:102C70005FEA4C0C48BF7047B0F1C04000F073B839
:102C800090EA010F0CEAD11348BF42F4807262450A
:102C900038BF634504D280EA010000F0004070476D
:102CA00010B500F01AF800BF8900013E00F007B827
:102CB00000F009B85FEA410C5FEA1C6C08D080EABA
:102CC000010000F050B85FEA400C5FEA1C6CF6D1DE
:102CD0004FF00040A0F5800070470EF1020E2EF07C
:102CE000030E5EF8044B244204D44FEA4102B2F1D1
:102CF0007F4F11D84FEA4003B3F17F4F0CD80ED16C
:102D00004FEAD07CB2F17F4F0CEB4C0C0CF1020C73
:102D100008BF4CEBD17C04E04FF0080C01E04FEA17
:102D2000D17C0CEB4C0324FA03F404F00704B4F157
:102D3000040C06D20EEB840CBDE810404CF0010CE4
:102D40006047DFE80CF0070802024FF00040A0F5F2
:102D5000800010BD0846420018BFD2F1807288BFC3
:102D600000F0004010BDFF2141EAD050C00570477F
:102D700090EA010F48BF81F000413FF5B8AE421A1A
:102D800004D882F00042A0EB020011444FEAD05276
:102D90004FF07F4C1CEA410FA2EBD15318BF9CEAC5
:102DA000026F4AD04FF0004C4CEA00204CEA01215F
:102DB00021FA03FCB0EB0C0C0FD412F0FE0F36D04E
:102DC0005FEA4C001DD5001240EBC25038BF70477F
:102DD0001CF03F0F18BF70470BE0A2F101025FEA41
:102DE0001C2040EBC25038BF70471CF07F0F18BF4B
:102DF0007047C3F12003994014BF401E20F001002A
:102E0000704780084FEA122308BF7047B0FA80FC71
:102E1000A2EB0C02CCF1280C60FA0CF093EA122F12
:102E200004BF00EBC25070474FEAC3707047130AEB
:102E30005FEADC1008BF7047F6E79CEA026F04D037
:102E400010EA5C0F08BF0020704710B5FFF745FF80
:102E500040DFF63E81F000407047FDF77EBB0CF08E
:102E60000F03092B08BF082000F051800A2B0BD05C
:102E7000082B18BF704708BF1CF0400F0AD04FF056
:102E800000004FF0000170471CF0400F18BF4FF0DA
:102E9000004070471CF0100F08D020F0704300F085
:102EA0007F4242EAD3014FEA4370704700F060402E
:102EB00021F07F4242EA000201F07F4040EA727056
:102EC00070474FF0FF0212EAD0521CBF92F0FF038E
:102ED0008B42C2BFD14200EBC1507047002A0AD0DA
:102EE000002B0BD0002900F00040A4BF40F0FE40B2
:102EF00040F40000704700F00040704743024FF07C
:102F00000B0C18BF4CF0806C7FF44CAE70471CF477
:102F1000801F11D01CF4E02F03D06FEACC314900A0
:102F200070474FF04050EFF3008222F0704242EAC7
:102F3000000282F3008870474FF0000070470102E2
:102F400002030405060708090A0B0C0D0E0F1010EA
:102F50000000000000000000010203040607080949
:102F6000000000000102030402400000000000A075
:102F70000000000005400000000000C80000000044
:102F80000C4000000000409C0000000019400000C0
:102F90000020BCBE0000000034400000BFC91B8EF2
:102FA00000000004B5400000504BCFD06607E2CFD0
:102FB000010000006C4100003E8251AADFEEA73400
:102FC00001000000D9420000DCB5A0E23A301F97B2
:102FD000FFFFFFFFB4450000FD25A0C8E9A3C14FD6
:102FE000FFFFFFFFFF3F0000000000800000000027
:102FF000FF3F0000000000800000000038300008A3
:1030000000000020100000002801000848300008DF
:103010001000002000070000440100081C00000010
:1030200043000000F8FFFFFF0C0000000E0000004E
:103030000F0000002E000000010000001000000042
:083040000000000000127A00FC
:04000005080000ED02
:00000001FF
