:020000040800F2
:10000000980B002089010008AB130008FD0F0008C1
:10001000A913000815030008F714000800000000E9
:10002000000000000000000000000000AF13000806
:100030001703000800000000AD130008B11300080A
:10004000A3010008A3010008A3010008A301000800
:10005000A3010008A3010008A3010008A3010008F0
:10006000A3010008A3010008A3010008A3010008E0
:10007000A3010008A3010008A3010008A3010008D0
:10008000A3010008A3010008A3010008A3010008C0
:10009000A3010008A3010008A3010008A3010008B0
:1000A000A3010008A3010008A3010008A3010008A0
:1000B000A3010008A3010008A3010008A301000890
:1000C000A3010008A3010008A3010008A301000880
:1000D000A3010008A3010008A3010008A301000870
:1000E000A3010008A3010008A301000800F002F822
:1000F00000F03AF80AA090E8000C82448344AAF188
:100100000107DA4501D100F02FF8AFF2090EBAE885
:100110000F0013F0010F18BFFB1A43F0010318473B
:10012000B4360000D4360000103A24BF78C878C135
:10013000FAD8520724BF30C830C144BF04680C60ED
:10014000704700000023002400250026103A28BF35
:1001500078C1FBD8520728BF30C148BF0B60704739
:100160001FB51FBD10B510BD00F099F81146FFF77F
:10017000F7FF01F0D1F900F0B7F803B4FFF7F2FF91
:1001800003BC00F0C1F80000094880470948004757
:10019000FEE7FEE7FEE7FEE7FEE7FEE7FEE7FEE737
:1001A000FEE7FEE704480549054A064B7047000094
:1001B00013140008ED00000898050020980B00209B
:1001C000980700209807002010B5431C02E010F8A3
:1001D000011B71B18107FAD14FF0013202C88C1AAC
:1001E0008C4314EAC211F9D0C01A0A0603D0C01E0B
:1001F00010BDC01A10BD0A0401D0801E10BD090236
:10020000FCD0401E10BD4FF000020429C0F0128047
:1002100010F0030C00F01B80CCF1040CBCF1020FB9
:1002200018BF00F8012BA8BF20F8022BA1EB0C018E
:1002300000F00DB85FEAC17C24BF00F8012B00F884
:10024000012B48BF00F8012B70474FF0000200B5AA
:10025000134694469646203922BFA0E80C50A0E8E9
:100260000C50B1F12001BFF4F7AF090728BFA0E897
:100270000C5048BF0CC05DF804EB890028BF40F863
:10028000042B08BF704748BF20F8022B11F0804FA5
:1002900018BF00F8012B70477047704770477546CC
:1002A00000F02CF8AE4605006946534620F00700E2
:1002B000854618B020B5FFF775FFBDE820404FF028
:1002C00000064FF000074FF000084FF0000B21F040
:1002D0000701AC46ACE8C009ACE8C009ACE8C0090D
:1002E000ACE8C0098D46704710B50446AFF30080F6
:1002F0002046BDE81040FFF740BF000000487047AF
:10030000340500207047000001491820ABBEFEE70D
:1003100026000200FEE7704772B6FEE770B504469D
:1003200000F0FEF80546601C02D004480078044442
:1003300000F0F6F8401BA042FAD370BD0000002088
:100340002DE9F84FDFF8B8910024A9F1040B2346FA
:100350000F2709F1040AABF1040EC9E00125A540FD
:100360002A40AA427DD1674ED1F804C0ACEB060802
:10037000B44532D014DCBCF1030F3AD009DCBCF137
:10038000000F2AD0BCF1010F1CD0BCF1020F31D1FB
:100390001DE0BCF1110F17D0BCF1120F2AD119E0EA
:1003A000B8F5881F19D006DCB8F5803F15D0B8F530
:1003B000801F1FD111E0B8F5001F0ED0B8F5041F43
:1003C00018D10AE0CB6815E0CB681B1D12E0CB68A2
:1003D00008330FE0CB680C330CE08B682BB1012B9A
:1003E0004FF0080303D0456104E0042302E00561F7
:1003F00000E00023FF2A01D8064601E000F10406D0
:100400004FEA840501D9A5F12005D6F8008007FA46
:1004100005FC28EA0C0803FA05F548EA0508C6F8C1
:1004200000804D68ED0062D5374DAE6946F001069B
:10043000AE61AD6924F0030605F001050095334D6A
:1004400006EB050CDCF80850A607360F07FA06F88D
:1004500025EA0805DFF8B880404503D14FF00008D1
:1004600017E044E0DFF8AC80404502D14FF00108CE
:100470000FE0DFF8A480404502D14FF0020808E009
:10048000DFF89880404502D14FF0030801E04FF0BB
:10049000040808FA06F848EA0508CCF808804D6810
:1004A000D9F80060ED024D4601D5164300E09643B1
:1004B0002E604D68DAF80060AD02554601D516434E
:1004C00000E096432E604D68DBF80060AD035D46AA
:1004D00001D5164300E096432E604D68DEF80060BB
:1004E000ED03754601D5164300E096432E60641C6B
:1004F0000D682A46E5407FF431AFBDE8F88F000073
:1005000008040140000011100010024000000140EA
:1005100000080140000C014000100140001401409F
:1005200001488068704700000000002070B504009A
:1005300025D094F83D00002520B984F83C50204691
:1005400000F04EF9242084F83D002068016821F075
:10055000010101602068016841F4004101602068E8
:10056000016821F40041016000F08AFA4D4A616897
:10057000914201D84C4900E04C49884201D2012007
:1005800070BD4B492368B0FBF1F15E6826F03F0671
:100590000E435E606368934206D94FF496735943E5
:1005A0004FF47A73B1FBF3F12368491C1E6A26F0FD
:1005B0003F06314319626168914210D84900401EDC
:1005C000B0FBF1F2521CC2F30B02042A01D2042048
:1005D00022E0B0FBF1F0401CC0F30B001CE0A2686D
:1005E000F2B301EBC10303EB0116431EB3FBF6F3B9
:1005F0005B1C43F480431B0549D092B301EBC1025D
:1006000002EB0111401EB0FBF1F0401CC0F30B00E7
:1006100040F4804040F400402168CA694CF6FF7302
:100620009A431043C861D4E9071001432068026867
:1006300022F0C00211430160D4E9030101432068A4
:10064000826848F2FF339A4311438160D4E905017F
:1006500008432168CA6822F0FF021043C86001E025
:100660000EE016E02068016841F001010160256498
:10067000202084F83D00256384F83E50002070BDA2
:1006800001EB4106431EB3FBF6F35B1CB3E701200D
:10069000C2E701EB4101401EB0FBF1F0401CC0F38A
:1006A0000B00B7E7A086010080841E0000093D0012
:1006B00040420F002DE9F84F1F4690468A460446F7
:1006C000DDF82890FFF72CFF054694F83D00202820
:1006D0007FD11923012240492046009500F020FDDA
:1006E000002876D194F83C00012872D0012084F8CB
:1006F0003C0020680168C90703D1016841F001018D
:1007000001602068016821F400610160212084F803
:100710003D00102084F83E0000262664C4F82480A2
:100720006785608D20852D48E0622B464A465146FC
:10073000204600F07BFC90B92068416980690090F8
:1007400036E02A464946204600F090FD50B1206C24
:10075000042804D12068016841F40071016001207F
:10076000BDE8F88F606A216800780861606A401C03
:100770006062618D491E6185218D491E89B2218586
:1007800022685369DB435B070BD451B100781061D9
:10079000606A401C6062608D401E6085208D401E36
:1007A00020852A464946204600F08EFC0028CED1FE
:1007B000208D0028C5D154F83D0B016841F400712B
:1007C0000160202004F81E09E67766770020C7E75D
:1007D000FFE70220C4E70000020010000000FFFF56
:1007E00010B586B00021009101910291039100683B
:1007F000104988421BD1104CA06940F00800A0614C
:10080000A069694600F0080004904FF44060009031
:1008100012200190032003900848FFF791FDE06942
:1008200040F48000E061E06900F48000049006B0CC
:1008300010BD00000058004000100240000C0140B4
:1008400002488168027811448160704700000020EE
:10085000074810B5016841F010010160032000F065
:1008600067F80F2000F006F800F024F8002010BD13
:100870000020024070B50D4D04464FF47A7128787F
:10088000B1FBF0F00A490968B1FBF0F000F0BEFAE4
:1008900048B9102C07D200222146501E00F028F83B
:1008A00000206C6070BD012070BD000000000020C1
:1008B0000C0000200C4808B5816941F001018161FC
:1008C000816901F001010091C16941F08051C1616C
:1008D000C06900F0805000900448416821F0E06158
:1008E00041F00071416008BD00100240000001406D
:1008F000F0B40E4B1B680C46C3F30223C3F107058B
:10090000042D00D90425191D072901D2002300E078
:10091000DB1E012606FA05F1491E214099409E4042
:10092000761E16403143F0BC00F0E6BD0CED00E051
:10093000064900F0070208684FF6FF03184040EA36
:100940000220034A10430860704700000CED00E0ED
:100950000000FA052DE9F0470F46050061D0434E2F
:10096000306800F00700B84209D2306820F0070074
:1009700038433060306800F00700B84251D1286831
:100980003B4C810712D5400703D5606840F4E06016
:1009900060602878000703D5606840F460506060AC
:1009A0006068A96820F0F000084360602878C007FC
:1009B00028D06868012810D02168022810D0890743
:1009C00000292EDA616821F0030101436160FFF71D
:1009D000A7FD804641F288390DE021688903EFE7E1
:1009E0008901EDE7FFF79CFDA0EB0801494502D91D
:1009F0000320BDE8F0876068696800F00C00B0EB88
:100A0000810FEFD1306800F00700B8420BD9306891
:100A100020F0070038433060306800F00700B8422B
:100A200001D00120E5E72878400705D56068E9682E
:100A300020F4E060084360602878000706D560680D
:100A4000296920F4605040EAC100606000F028F895
:100A50006168084AC1F30311515CC8400649086047
:100A600006480068FFF706FF0020C2E700200240AA
:100A7000001002403D2500080C000020040000206A
:100A80000448054900684968044AC1F30221515CE1
:100A9000C84070470C000020001002404D2500089F
:100AA0000E4A51680E4801F00C03042B11D0082B9C
:100AB0000FD10C48C1F38343C903C05C0AD5516808
:100AC000084AC1F34041921E515C054A5043B0FBB5
:100AD000F1F070470449484370470000001002409D
:100AE00000127A002D25000800093D002DE9F84F7D
:100AF000040070D02078C04DC00749D06868C0F3AA
:100B00008100012807D06868C0F38100022809D15C
:100B10006868C00306D52868800339D56068002856
:100B2000E7D035E06068B0F5803F0BD010B1B0F58C
:100B3000A02F11D0286820F480302860286820F485
:100B4000802002E0286840F480302860606890B11E
:100B5000FFF7E6FC06460AE0286840F4802028609B
:100B6000F0E700BFFFF7DCFC801B642873D828681F
:100B70008003F7D50CE0FFF7D3FC064605E000BF85
:100B8000FFF7CEFC801B6428F0D828688003F7D4D8
:100B900020789A4E80074FF001094FF0000839D5B0
:100BA000686810F00C0F07D06868C0F38100022855
:100BB00009D16868C00306D42868800714D5206965
:100BC000012808D110E02069B0B1C6F80090FFF705
:100BD000A7FC074605E00AE1FFF7A2FCC01B0228BC
:100BE000C4D828688007F7D52868616920F0F80024
:100BF00040EAC10028600DE0C6F80080FFF790FCD5
:100C0000074604E0FFF78CFCC01B022823D82868A5
:100C10008007F7D4207800072CD57948A169D9B18D
:100C2000C0F80090FFF77CFC074604E0FFF778FC73
:100C3000C01B02280FD8686A8007F7D571484FF4A7
:100C4000FA510068B0FBF1F0009000BF0098411E1F
:100C50000091FAD20EE080E0C0F80080FFF760FC5F
:100C6000074604E0FFF75CFCC01B022875D8686AE1
:100C70008007F7D42078400760D5E8690027C000D6
:100C800008D4E86940F08050E861E869012700F085
:100C9000805000905C480168C90513D40168834600
:100CA00041F480710160FFF73BFC824606E000BF23
:100CB000FFF736FCA0EB0A0064284ED8DBF80000F2
:100CC000C005F5D5E06801280AD008B1052813D081
:100CD000286A20F001002862286A20F0040002E05F
:100CE000286A40F001002862E06841F2883B98B130
:100CF000FFF716FC82460BE0286A40F004002862E9
:100D0000EEE700BFFFF70CFCA0EB0A0159455AD8EB
:100D1000286A8007F6D50CE0FFF702FC824605E062
:100D2000FFF7FEFBA0EB0A0159454CD8286A800763
:100D3000F6D41FB1E86920F08050E861E06988B31B
:100D40006968C1F38101022944D00228C6F8608095
:100D500004D0FFF7E5FB044638E034E0FFF7E0FBA2
:100D6000074604E0FFF7DCFBC01B02282BD82868ED
:100D70008001F7D4206AB0F5803F05D16868A1688A
:100D800020F4003008436860D4E90801084369682A
:100D900021F4741108436860C6F86090FFF7C0FB47
:100DA000044606E025E000BFFFF7BAFB001B02285F
:100DB00009D828688001F7D51BE000BFFFF7B0FB1A
:100DC000001B022802D90320BDE8F88F28688001A3
:100DD000F4D40EE00128F7D06868226A00F480316C
:100DE000914204D1616A00F47010884201D0012060
:100DF000EAE70020E8E7000000100240000042425D
:100E0000800442420C0000200070004010B5401EDB
:100E1000B0F1807F01D3012010BD4FF0E02460616C
:100E20000F21601700F068FB0020A06107202061FF
:100E3000002010BD70B590F83C20012A26D0012476
:100E400080F83C40022280F83D2003685A689D6883
:100E500022F070060A6832435A600D4B02689A42CB
:100E600008D0B2F1804F05D00A4B9A4202D00A4B0B
:100E70009A4204D1496825F080031943916080F8B3
:100E80003D40002180F83C10084670BD022070BD36
:100E9000002C0140000400400008004010B5040090
:100EA00003D094F83D0010B107E0012010BD0020F0
:100EB00084F83C00204600F01FF8022084F83D0032
:100EC000211D206800F0A6FA012084F8460084F86D
:100ED0003E0084F83F0084F8400084F8410084F824
:100EE000420084F8430084F8440084F8450084F804
:100EF0003D00002010BD000008B50068064988428A
:100F000008D10648816941F400618161806900F47B
:100F10000060009008BD0000002C0140001002405D
:100F200070B5044690F83C000025012817D0012632
:100F300084F83C60022084F83D002068826822F03A
:100F4000770222F47F4282600868502838D00DDC96
:100F500020284FD005DC90B3102811D14AE00220A0
:100F600070BD302846D040280AD13BE060282FD001
:100F700070280DD0B0F5805F03D0B0F5005F12D0BF
:100F8000012584F83D60002084F83C00284670BDAF
:100F9000CB68D1E90121206800F078FA20688168E7
:100FA00041F0770109E0CB68D1E90121206800F028
:100FB0006DFA2068816841F480418160E1E719E0C1
:100FC000CA684968206800F073FA5021206806E07A
:100FD000CA684968206800F07CFA6021206800F047
:100FE0005FFACEE7CA684968206800F061FA4021DC
:100FF0002068F4E7226801461046F0E7FEE7016842
:101000004A69D24352050FD46FF480624A610021CD
:1010100040F8301F202242738173026942F00402BB
:10102000026101730120704700207047F8B5044643
:10103000C06A1E460D461746082807D0012805D06D
:1010400010F5803F02D0206B122804D1206801687F
:1010500041F480710160134600224FF001112046D7
:10106000009600F05DF840B120680068C00502D528
:101070004FF4007020640320F8BD2069B0F5804F64
:101080000ED00620216800EAD51040F0F00008617B
:1010900033463A460B49204600F08AF878B902E018
:1010A00005F0FE0000E0E8B221680861054933461A
:1010B0003A46891F204600F07BF80028DCD001204A
:1010C000F8BD00000800010070B516460D46044644
:1010D0001EE02046FFF793FF08B1012070BD681C99
:1010E00016D0FFF71DFA801BA84200D885B92068EA
:1010F0004069C04340070BD5002044F8300F202141
:101100006173A073216941F0200121612073E4E73C
:1011100020684069C0434007DBD4002070BD000058
:101120002DE9F047984617460D460446C1F3074699
:10113000DDF820902AE000BFB8F1FF3F26D0FFF78E
:10114000EFF9A0EB0901414502D8B8F1000F1DD11C
:101150002068012E16D0806925EA00000004000CEA
:1011600012D00020B84211D1002044F8300F2021C5
:101170006173A073216941F0200121612073012076
:10118000BDE8F0874069E7E70120EBE72068012E22
:101190000AD0806925EA00000004000C06D0002077
:1011A000B842C9D00020EBE74069F3E70120F7E738
:1011B0002DE9F047984616460D4604464FF00009C3
:1011C0004FF0200AC1F3074723E020684069C0437D
:1011D000400515D42068016841F400710160216860
:1011E0006FF480604861C4F8309084F83DA084F8C2
:1011F0003E90216C41F00401216484F83C9021E090
:10120000701C06D0FFF78CF9A0EB0800B04203D8A1
:1012100016B1012F1FD021E02068012F15D0806961
:1012200025EA00000004000C18D000BF44F8309FED
:1012300084F80DA084F80E90216941F0200121610D
:1012400084F80C900120BDE8F087406925EA000091
:101250000004000CEAD12068406901E02068806940
:1012600025EA00000004000CAFD1ECE770B516468B
:101270000D4604461EE02046FFF7C1FE08B10120DE
:1012800070BD681C16D0FFF74BF9801BA84200D830
:1012900085B920684069C04300060BD5002044F89A
:1012A000300F20216173A073216941F02001216179
:1012B0002073E4E720684069C0430006DBD40020C7
:1012C00070BD00000D4808B5816941F020018161C1
:1012D000816901F020010091816941F0080181617B
:1012E000816901F008010091816941F00401816187
:1012F000806900F00400009008BD0000001002406A
:101300000D4810B50B4901600C49416000214FF4B4
:1013100080428160C0E9031241618161C161016263
:10132000FFF704F9002803D0BDE81040FEF7F4BF32
:1013300010BD00000058004018000020A0860100E9
:1013400010B586B0002417480094019402940394C9
:1013500004941349059401604721C0E901144FF634
:10136000FF71C0E9031444618461FFF797FD08B180
:10137000FEF7D2FF4FF48050009069460948FFF70E
:10138000CFFD08B1FEF7C8FF049404A905480594F1
:10139000FFF750FD002801D0FEF7BEFF06B010BDDC
:1013A000002C01406C000020FEE7FEE7704770470C
:1013B000FFF746BA30B58FB028216846FEF745FFE3
:1013C00014210AA8FEF741FF01210804CDE900100D
:1013D0000024029402250491CDE907504FF4E01057
:1013E00009906846FFF782FB08B172B6FEE70F204E
:1013F000CDE90A054FF48060CDE90C4002210AA82E
:101400000E94FFF7A7FA002801D072B6FEE70FB0DE
:1014100030BD7047F0B50268194B1A4C1A4D4FF0A9
:101420008047984205D0B84203D0A04201D0A842DC
:1014300003D122F070064A683243984205D0B84280
:1014400003D0A04201D0A84203D122F44074CA685C
:1014500022434C6922F08002224302608A68C26201
:101460000A688262984201D10969016301214161E0
:101470000169C90703D0016921F001010161F0BDD3
:10148000002C0140000400400008004010B58468B2
:1014900042EA032224F47F440A432243826010BDBF
:1014A000826822F070020A4342F0070181607047AF
:1014B00010B5036A046A24F001040462846924F00C
:1014C000F00444EA021423F00A020A43846102622F
:1014D00010BD10B5036A046A24F010040462846924
:1014E00023F0A00324F4704444EA023243EA0111D9
:1014F0008261016210BDFEE70907090E002804DBC6
:1015000000F1E02080F80014704700F00F0000F1B7
:10151000E02080F8141D7047A8B0FFF799F9FFF795
:1015200049FFFFF7CFFEFFF7EBFEFFF709FF02A829
:1015300000F076F802A800F08DF802A800F0BEF9DD
:101540006420FEF7EBFE02A800F084F82D4902A803
:1015500000F0BDF92CA30A22002102A800F068F9CE
:1015600002A800F0ABF94FF47A70FEF7D7FE2A4ECE
:1015700080246FF02F09102506F1200706F140089E
:1015800002A800F067F84C4501DD641E00E08024ED
:10159000CDE900561023A1B21A4602A800F050F976
:1015A00004F11000CDE9005781B210231A4602A8B9
:1015B00000F046F904F12000CDE9005881B2102373
:1015C0001A4602A800F03CF9144902A800F07FF97D
:1015D00011486030FEF7F8FDC006000EC0F1800033
:1015E00000EBD0700C4BC0F3470160332D2202A8F2
:1015F00000F01EF902A800F061F92820FEF78EFE27
:10160000BEE70000552500085A68616E67205A68D9
:10161000692058696F6E6700BE240008252D0008F8
:1016200010B50446084B094A094900F099F92046CB
:1016300000F0E5FC0021204600F0F1FC2046BDE86A
:10164000104000F007B8000019240008C12000086D
:101650007036000801680A7C90F83810406B5143DE
:10166000C900FEF7D0BD2DE9F041044690F87000A6
:101670001F4615460E4630B1012809D002280CD06D
:10168000032815D10FE0E16D20468847284408E083
:10169000E16D20468847301A09E0E16D2046884711
:1016A000281A85B204E0E16D20468847304486B2AE
:1016B0002846A4F86460A4F8660039460025204650
:1016C00000F044FB010003D0204600F06FFA85B221
:1016D0002846BDE8F08100003FB581B0044690F88F
:1016E0008C00089900283AD0BDF81000002836D0A8
:1016F000012811D9022902D0032907D00CE0BDF836
:101700000820101A401CADF8080005E0BDF80C20B8
:10171000101A401CADF80C0011F0010521D0B4F8EE
:101720004810BDF80800814219D8B4F84A10814227
:1017300015D9B4F84E30B4F84C2004A90DF10C00C2
:1017400000F0A6F900280AD00095206BBDF81030F3
:10175000BDF80C208568BDF808102046A84705B0E4
:1017600030BDB4F84C10BDF80C008142F7D8B4F885
:101770004E108142F3D9B4F84A30B4F8482004A995
:1017800002A8DDE72DE9FF4F81B090F89270DDF8F7
:1017900038801D460E4681468FB100208246039850
:1017A000039A401C80B20090701983B2484600F042
:1017B0006DF8002839D001244FF0000B31E00120F2
:1017C000ECE700BF98F80000204000230CE05B1C11
:1017D000761C61009BB2B6B211F0FF0402D1012465
:1017E00008F101086D1EADB255B198F8001001EA7C
:1017F000040110B10029EAD103E00029E7D003E099
:1018000010B189F8927004E099F8910048B989F80C
:1018100092A0F01A81B2CDF800B04846039AFFF7C3
:101820005BFF002DCED189F8927005B0BDE8F08F36
:1018300030B4024C446030BC00F057B98520000839
:101840002DE9F84F8246DDE90A57D81DC0F3CC08D0
:10185000501980B21C460090081983B2164689467A
:10186000504600F013F800280ED00BE02346324615
:10187000494650460097FFF785FF761C6D1E47448A
:10188000B6B2ADB2002DF1D1BDE8F88F70B50D46FE
:101890001E460446B0F84E10B0F84C00049B00F011
:1018A000B2FA002809D0B4F84A10B4F84800334618
:1018B0002A46BDE8704000F0A6BA70BD10B50446D7
:1018C00000F031FB2046BDE8104000F0A0BB10B591
:1018D0000446806D884209D004F17400A16500F0CF
:1018E000EDFA2046BDE8104000F056B810BD0000EB
:1018F0000149C16570470000611B00080021A0F884
:101900005010A0F854104FF6FF71A0F85210A0F834
:101910005610016B4968084770B5044600250498C5
:10192000A565E362616384F8382084F8395084F84F
:101930006D5084F8915084F88D50012184F89210F4
:1019400084F8931020630168204688472046FFF7FB
:10195000D5FF2046FFF7CCFF84F8705070BD000023
:101960007CB50C46009313460546084A084900F02A
:101970005EFB01A800F09CFA0146064B00949DF81E
:1019800004202846FFF7C8FF7CBD0000E9210008BD
:1019900011230008211E000810B5816D00291AD0FE
:1019A00090F9813080F88E3090F9822080F88F2075
:1019B00090F88D1000290ED001290DD090F97E40AD
:1019C00090F980100C449C4201DD80F88E408A42E0
:1019D00001DD80F88F1010BD90F983108B4201DA81
:1019E00080F88E1090F98410F1E72BB1012B05D00F
:1019F000022B06D0104402E0084400E0801A80B2B6
:101A00007047401AFBE72BB1012B05D0022B06D003
:101A1000401A02E0104400E0084480B27047801A87
:101A2000FBE738B50446B0F856000090B4F85230E1
:101A3000B4F85420B4F850102046FFF727FF18B32D
:101A4000012084F88C00B4F84810B4F850008142AA
:101A500001D2A4F84800B4F84A10B4F85200814208
:101A600001D9A4F84A00B4F84C10B4F854008142EB
:101A700001D2A4F84C00B4F84E10B4F856008142DC
:101A800001D9A4F84E0038BD002084F88C0038BD80
:101A900030B504880D882544ADB2AC4205D99C42CE
:101AA00002D25D1EADB200E014469C4201D29542C6
:101AB00001D8002030BD944200D214469D4200D986
:101AC0001D460480281B0880012030BD38B5C58F15
:101AD000049C0094521BC46A92B2A04738BD38B52A
:101AE000049C0094FFF7F2FF38BD2DE9F0471C4637
:101AF00091468846064600F0DEFC00254FF6FF774B
:101B000072682178304690470346B84225D0641C5D
:101B1000A3F57F40FE38F3D04A4641463046FFF7F2
:101B2000A2FD96F8701031B1012907D0022908D022
:101B300003290FD10AE008EB000104E009EB0001E2
:101B400006E0A8EB00011FFA81F803E0A9EB000111
:101B50001FFA81F9284485B2D2E72846BDE8F0870C
:101B60000020704710B50C4600F006F80122641EF4
:101B7000A240801A40B210BD30B50568047B2A78B7
:101B8000E2406318DBB2082B09D36D1C05602D7889
:101B9000C4F10804A5401543083BEAB2DBB20124B6
:101BA0008C40641E14400373204630BD2DE9F84379
:101BB000054600F1600400F00CF915F96B6F204642
:101BC000E97BFFF7CFFF8146297C2046FFF7CAFF5C
:101BD0000746697C20466B3DFFF7C4FF804694F9B9
:101BE0000A00002857DDF019404247B2237CA08844
:101BF0003A464946FFF7F9FEA080237C3A46E08842
:101C00004946FFF700FFE080A188277C02460B468B
:101C100037B1012F0AD0022F40D0032F0FD146E059
:101C200094F90A7030443B449BB207E0891B491C7D
:101C300094F90A705B1C89B29BB2384480B2009060
:101C40002846FFF723FE30B30020207284F80900F5
:101C500095F876102046FFF78FFF814695F87710AC
:101C60002046FFF789FF074600224946284600F034
:101C700027F801223946284600F022F801212046A3
:101C8000FFF77AFF0028EFD194F90900B042DFDBBB
:101C9000A07B85F892004046BDE8F88394F90A706D
:101CA0005B1CC91B491C89B29BB2921B04E094F9CE
:101CB0000A7033449BB2D21B521C92B2401CBDE747
:101CC0002DE9F74F84B00D46049C94F8687094F8A1
:101CD00069806034A07AC01BC6B20196B54200D2BA
:101CE00001954FFA88F279B2A088B4F806B0237C47
:101CF00092468946FFF779FE0290237C5246494678
:101D00005846FFF780FE0246069808B1A17B02E024
:101D1000607B50B9E17B049880F89210207C0090A1
:101D2000DDE901310498FFF7D7FCB54207D3A81BC2
:101D3000C5B208F10100002700F0FF08CAE77819D2
:101D4000207284F8098007B0BDE8F08F70B50D46A9
:101D50000146806D1730FF2D10D8612D02D3B1F8E8
:101D6000881003E0412D02D3B1F886100844417871
:101D700019B30278AA42F9D1801C70BDB1F88A105B
:101D80000C1826460021304600F019F804440221C0
:101D9000304600F014F8361DA842F3D34FF6FF7218
:101DA000207802EA00216078084306D0A84201D1D9
:101DB000E01C70BDA0780444F2E7002070BD084428
:101DC0004FF6FF720178407802EA0121084480B2A0
:101DD000704730B5054600F16004016600202073AD
:101DE00015F8781F2046FFF7C7FEA07269782046D5
:101DF000FFF7C2FEE072A87EA07310B10020E0736E
:101E000030BD0120FBE78A4205D2834201D89A42C5
:101E100003D9012070478342F9D8002070470000A1
:101E2000F0B502F007060124B440002590F892E0D6
:101E3000E7B2DDF814C02C46BEF1010F01D83D46D3
:101E400000D03C46076822F00702BCF1000F3F7C3F
:101E500007FB02F7BAB2476B3A44114409D108783C
:101E60005B1E284360401B0401F8010B1B0CF6D1DC
:101E7000F0BD0A78761C2A436240A3F101030A7080
:101E800016F007069BB206D06A06150E6206140EFF
:101E9000002BEED1F0BD428F114490F89220012A20
:101EA00003D800BF4FF00105F2D04FF00104EFE777
:101EB00008210170004870473401002070B50546C4
:101EC00008782870487868708878A870C878E870B2
:101ED000087928714879687188790C46A871E07989
:101EE000E871207A2872607A6872A07AA872E07A23
:101EF000E872207B2873607B6873A07BA873E07B0B
:101F0000E873207C287411212046FFF758FF68826F
:101F100013212046FFF753FFA88215212046FFF723
:101F20004EFFE88270BD2DE9F843064690F8387000
:101F300090F83950006800244FF6FF7890F811901F
:101F4000316830462A460B7C716B04FB03FC1FFA98
:101F50008CFC08EACC0C61440091002100F040F8B0
:101F6000641C6D1CE4B2EDB2BC4201D24D45E7D316
:101F7000BDE8F883F0B590F838204FF6FF75036898
:101F800005EAC2018187197C05EAC101418790F801
:101F9000394005EAC401C1875E7CA718B74201D960
:101FA000321B92B205EAC20220F8401F1144418060
:101FB000998A8180D98AC180F0BDFFF7DBBF0021FB
:101FC000A0F84810B0F84410A0F84A10B0F840103B
:101FD000A0F84C10B0F84210A0F84E10FFF721BD49
:101FE0001CB58DF805108DF80620049C8DF8043082
:101FF0000094012284686B460F21A0471CBD30B4B9
:1020000084680023A44630BC1A460A21604730B4D5
:1020100084680023A44630BC1A461021604730B4BF
:1020200084680023A4460A4630BC0B2160472DE992
:10203000F04115460E460446069F00F009F8676118
:10204000A660C4E903532046BDE8F04100F012B891
:10205000002140F8081B064A026042608260C260AC
:10206000C17681770161FF21017780F820107047E8
:102070001524000830B484680023A44630BC1A46F6
:1020800009216047080001D00A2801D14FF6FF70EE
:10209000704730B404690023A44630BC1A461921A5
:1020A000604713B50122046901AB1721A0471CBD8D
:1020B00030B404690023A44630BC1A461821604796
:1020C00038B5184818290DD004DC142907D0172971
:1020D00023D10AE0192916D020291ED11FE0FFF7CD
:1020E0000FF91CE00021017019E00F4C08E000BF5F
:1020F000017813F8015B6554491C521E0170D2B27D
:10210000002AF5D10BE04FF47A7100910378064A6A
:1021100078210648FEF7CEFA08B1002038BD01202C
:1021200038BD000010000020B4000020180000207E
:1021300030B4C4680023A44630BC1A461921604755
:1021400030B4C4680023A4460A4630BC1621604758
:1021500030B4C4680023A4460A4630BC1521604749
:1021600030B4C4681346A4460A4630BC1721604701
:10217000F8B50C464FEA000514F8011B182924D0C5
:102180000EDC152919D0162917D0172923D120784C
:102190008DF800006A4601212846FFF7E1FF0AE0BA
:1021A000192912D0FE2916D122788DF80020292174
:1021B000284600F064F9641CDEE722788DF80020E0
:1021C000EE6800232846B047F5E70023EE681A467C
:1021D0002846B047D0E7F8BD30B4C4680023A44611
:1021E00030BC1A46182160472DE9F041DFF8B08075
:1021F00014460646A1F11402002798F800001D4677
:10220000062A4AD2DFE802F02F03161B3E4310B124
:102210003046FFF73EFF3046FFF74AFF00213046C9
:10222000FFF73FFF21463046FFF73BFF012088F8CC
:10223000000029E021463046FFF733FF24E050B18B
:102240003046FFF726FF06E01821304600F01DF962
:10225000183CE4B21835182C2A46F5D821463046E9
:1022600000F013F90EE096F82400FF2802D1782040
:1022700086F8240037692B4622463046BC46BDE826
:10228000F041604788F800700120BDE8F081002827
:10229000F8D03046FFF7FDFEF4E70020F5E7000038
:1022A0001100002070B50023456904461A46282114
:1022B000A8470023E5681A4614212046A8470122B2
:1022C0004B21204600F0DBF82068292102792046C6
:1022D00000F0D5F800224B21204600F0D0F820680D
:1022E00029210279204600F0CAF801224B2120461C
:1022F00000F0C5F82068292142792046BDE87040E9
:1023000000F0BDB80160897C80F8221070470000A1
:1023100070B50C46054600F019F888B9092C0BD0A9
:102320000A2C01D0002070BD2846FFF7BBFF0549ED
:102330002846FFF71DFF03E003492846FFF7E2FFA9
:10234000012070BDA2360008A43700082DE9F04135
:102350001E46144605460B2908D00D290ED00E291D
:102360001ED00F2927D00020BDE8F0811AB12849DE
:10237000FFF7FEFE4AE02649491FF9E74AB1244922
:102380000C31FFF7F5FE286890F8130085F822005D
:102390003CE01F49491DFFF7EBFE2868807CF5E70C
:1023A000FFF71AFF81212846FFF7D2FE2146284673
:1023B000FFF7C6FE27E0FFF70FFF707995F82210B0
:1023C00001EBC000C7B240212846FFF7C1FE102034
:1023D00040EA17112846FFF7BBFE07F00F01284619
:1023E000FFF7AEFEB07940F0B0012846FFF7A8FE37
:1023F00030793268C006010E2846FFF7B1FE641E30
:1024000014F0FF04F4D12846FFF792FE0120ABE759
:10241000813600080020704710B54D2919D00CDC1A
:102420002B2918D004DC292920D02A290ED114E028
:102430002D291DD04C2909D10BE0002250291BD099
:10244000512919D0522917D0532915D0012180F8CC
:102450002710012010BD00BFFBE700204FF4A07142
:1024600000BF401C80B28842FAD3F2E7012000E0AE
:102470000520FDF753FFECE780F82720E9E730B4AB
:1024800044690023A44630BC60472DE9F04115465D
:102490000E460446FFF70CFE40212046FFF701FEE2
:1024A00027692B46324617212046B8472046BDE80B
:1024B000F041FFF7EEBD002180F826107047800044
:1024C0009F109010900890049E028200E27F82028A
:1024D0009E0490049008901090228A41840080000D
:1024E00080008000FF7F800080008000FC1F0000D3
:1024F00080001011122112481248E10F0000100A4A
:10250000101210017E7F88094809043F140912093E
:10251000123F0909280944097E7F4401000136332E
:1025200032333037303330313332000102020304AA
:1025300005060708090A0B0C0D0E0F10100000000D
:102540000000000000010203040607080900000063
:102550000001020304BF0002020304030504060A8B
:1025600000FE07FE07000142029207B32005006249
:10257000072107394367A80022079B5227590123E7
:102580000D3D42AF4C69A86AA8322500240B3D429C
:1025900037AF7AA7B42300250B3D422FAAEEAA2518
:1025A0001300260C3D422FA798729564540127050D
:1025B0001953672808BB42379575012908BB422784
:1025C0009755092A0A2D4627A76AA876002B0A2DB7
:1025D0004637A3386446112C079B3E4F95002D06C5
:1025E0000D4E67082E079B3E2FAD042F0B3D421F5B
:1025F0006594BB514600300A3D4237A7DA4E750458
:10260000310C3D4237CB94514619C521320C3D4225
:102610006FE58CA2CC190D01330C3D42676894B371
:10262000863A2D00340C3D423FCB54A6A1334A00DC
:10263000350B3D42E746C9CC48A705360B3D42570E
:10264000E68C92A9D302370C3D4267689433CA35B1
:10265000CA00380B3D426F659D56D66901390C3D65
:10266000426F65A95446394A003A0ABB3E2FAD0C69
:10267000D34A003B09BB3E2FAD0C55093C0ABC4276
:102680003FB6514619053D081D4A676838043E0BA0
:10269000BC4227A38C328A6D003F0A3D426FE5366B
:1026A000CA7404400B3D426F65B99295E102410B3B
:1026B0003D4237A75A8F917500420C3D4267C42AAC
:1026C000A659C5A100430C3D426F658D32CA28A7AB
:1026D00005440D3D4267C42AA698628A4301450C11
:1026E0003D42E746198D94514643460D3D42E7462B
:1026F000198D9451461901470C3D426F658D328A00
:102700003B2D0048093D4227DB63643B4908BB423F
:1027100067C5AE014A0C3D42776794514665940007
:102720004B0B3D4227CB54EA14AB1C4C0E3D4227C9
:10273000A38C32CA28A38C86004D0A3D4227EBB5F4
:1027400092B6034E0A3D4227EBA992DC3A4F093D6F
:10275000426F65EFB400500D3D4267A4AC87CA28B4
:10276000A38C00510A453E6F65AF6AC300520B3D12
:102770004267A4AC872AAB1C530B3D426F650D37F3
:10278000D46901540E3D4267C88C32CA28A38C22FA
:102790000055083D4227FB4E0B560B3D4227DBA957
:1027A0004C31E508570A3D4227BB924A7700580A48
:1027B0003D4227EB5457B50E590C3D4227EB546769
:1027C000945146115A0A3D42676894BBD1105B0888
:1027D000BB4267C4CE015C0D3D4227A30C33CC3015
:1027E000C38C025D08BB4267768E005E071D5237C0
:1027F000A73A5F060D3E67086006125B2706610A6E
:102800002D426FC334741A01620C3D4227A38C928F
:10281000A9A75200630A2D426F658D725A00640B9E
:102820003D421F6594CC2D950A650A2D426FE53116
:10283000325C00660C3D42575679C48C32CA006740
:102840000C3D3A6F689D46463A2D00680B3D422785
:10285000A38C92A9ED006908BB422F23D91A6A0BF9
:10286000CC3A3F635D4B9914006B0C3D4227A38C1F
:10287000B24CB3CA016C07BB4247F61A6D0A2D422F
:1028800047B5545249076E082D422799DA0E6F0951
:102890002D426F653B2D00700C3D3A27997A2A95A1
:1028A000514600710B3D3ACFDC52A98C320A720BB3
:1028B0002D4227991A65941100730A2D426F65B84D
:1028C000E15000740D3D422FA33C624619C5A8009B
:1028D00075082D42273B950A760A2D4227EB54A610
:1028E0001C0177092D42275B49750178092D422784
:1028F000A7BAAA03790B3D3A279B4A65A4D3027A6B
:10290000082D4267E8F6107B0BBC42576594348A69
:1029100019097C063943E7087D0CBC4247A398910E
:10292000CA2849007E091D522FAA241300A00500C1
:102930006207A1073943270D01A20C3D3E370F1551
:10294000534C79C408A30B3D42575679671495023E
:10295000A40A2D4227A799E2CA01A50D453E27EBFF
:1029600054C72133CA2802A6063943670DA70B4571
:102970003E6F65343B374A0BA8068B5E2705A90CD2
:102980003D426F6595A64A3A2D00AA0AB4466F44A7
:10299000A56A3402AB0B2E42B78A29E6986300ACD5
:1029A00007944A67E400AD068C4E6704AE0B3D42C7
:1029B0006FE591E6D46901AF060D5E6708B0069B2E
:1029C00052AF0BB10B354237A33864467108B208D9
:1029D000AC4E4FC5E608B30AAC4E67A3A4D148007D
:1029E000B406125B4F01B50A353E27DB53A98C00B4
:1029F000B60E3D426F8C34525231C5145300B705A8
:102A0000094F27B806123B4F01B907AB4E2FC96AD1
:102A1000BA0AB4464F4599341C01BB0C2E4227E636
:102A200098638A294600BC104E3E2F230D33CC6894
:102A300066A4531C1906BD104E3E2F230D33CC68DF
:102A40006554C38C321ABE0E4D3E47C39C619459E7
:102A5000A634320ABF0A3D4237D319E5D602C00C6C
:102A600045422FC3BCB21E23EB00C10B4542BF5EE3
:102A7000598F917500C20C454237A7B8B21E23EB9F
:102A800000C30C45422F2AB9B21E23EB00C40B45EC
:102A900042AFA656D663641DC50C454237A7B8B2EF
:102AA0001E23EB00C60B3E4277A4B239466C0EC71C
:102AB0000D4D3A6F658D32CA28A75D03C80E454299
:102AC0002F8F8D321A29A38C8600C90E45423F8D67
:102AD0008D321A29A38C8600CA0E4542378E8D325C
:102AE0001A29A38C8600CB0E4542AF1A1B653452BF
:102AF00046190D01CC09C34227A7155B03CD09C3B5
:102B00004237A5155B03CE09C342AF1A29B606CFDB
:102B100009C34227E5155B03D00D3D4267C42A8EE9
:102B200054A6381400D10B454237754F95E4D601B1
:102B3000D20B45422FC3BCB23B2D00D30A4542BF46
:102B40005ED99D1600D40B454237A7B8B23B2D0085
:102B5000D50A454237355776A705D60A4542AFA66E
:102B60005676A705D7092D4227A7BAAA03D80B3D49
:102B7000426FC52BCD991600D90A45422FC3DA3BC7
:102B80002D00DA094542BFCCDE6901DB0B45423737
:102B9000A78CB33B2D00DC0A4542AFC6D93B2D00C4
:102BA000DD0C4542BFCC3AD519651401DE0E3D421D
:102BB00027A391F2501965941100DF0B3D426F6518
:102BC00099CA2A2B05E00C45422FC34C6E98864EBD
:102BD00023E10B4542BF26374C43A711E20C454287
:102BE00037A74C6D98864E23E30C454237B5A90DA7
:102BF000D3D06904E40B3D42AFA6364C43A711E5A0
:102C00000C454237A79C374C43A711E60B2E426F69
:102C100064548D998700E70B3D3A6F658D72DA3504
:102C200000E80C45422FC34CAE3C46860BE90B45F1
:102C300042BF26571E23C305EA0C454237A74CADB9
:102C40003C46860BEB0B3D42AFA6561E23C305EC5C
:102C500009C3422767245B03ED08C342AF86B23540
:102C6000EE08C342AF2D5B03EF08BB422765D91ABC
:102C7000F00B3D424743B9B29D1600F10A45423779
:102C8000B57132B51DF20B45422FC34CAE6CA70592
:102C9000F30A4542BF2657B6D302F40B454237A785
:102CA0004CAD6CA705F50B454237B5A995EDB400C1
:102CB000F60A3D42AFA656B6D302F7092D46375362
:102CC000435311F80A2D426FC895E65000F90B45A1
:102CD000422FC34C65A75201FA0A4542BFA6B25320
:102CE000A900FB0B454237A78CB353A900FC0A3D52
:102CF00042AFC6D9A95400FD0C4D3ABFCCA652191B
:102D0000E9B400FE0D453A27A391B23D544619019E
:102D1000FF0D4D3AAFC6D9542A239D16000000007E
:102D200004FFFF0000BF0003020304030505080DB4
:102D300000FE09FE0900017202EC092B2005006E5D
:102D40000C2107C9438C431222071C5B8CC8142337
:102D50000EBE469CA86558A26458A21600240FCD4A
:102D600042AC6C50A224DB922819B4082510CE4244
:102D70009C4C8992284CC35225D11200260DBE428C
:102D80001C2D6AD3A2448B96002706995B8C0128E0
:102D90000BCB43AC244AA25A9405290C4B438C2CF0
:102DA000CAA24A9444002A0CAE529C289386498BAE
:102DB00012002B0AAD4AAC301AA430022C089C3EFB
:102DC0009C45C9002D068D528C412E081B3F9C64EA
:102DD00049002F094F42EC6A9F6300300DCE422C10
:102DE0002D4A428F49944900310BCD42AC4C4AC226
:102DF0009E0601320ECE429C2109C534CCB4301D52
:102E000006330DCE428C6B589C533119120034108E
:102E1000CE42CC504BA24A9664C930A60900350E6A
:102E2000CE428C435A59B43415932101360ECE420A
:102E3000AC294C2B8B268AC99000370CCE428C6B68
:102E4000580DD3300D01380FCE429C21098DC99009
:102E500084C6644800390DCE429C21096DCA921681
:102E6000A3093A0B433F9C64C9916449003B0BC4DE
:102E70003EAC68CAB145C9003C084D43CCAC6B07B9
:102E80003D08A64A8C3B3A0C3E09CD428CB45B47C8
:102E9000003F0DCE429C2109C534ACE660044010D1
:102EA000CE429C21094D431229C994C84302410DC9
:102EB000CE422C2D4A42E33088C6004212CE428CCC
:102EC00021CA92504B86284B422D192200430CCE2A
:102ED000429C2109D51E932101440DCE428C21CA6A
:102EE00092D0B7648800450CCE428C435A1DA2B4E0
:102EF0003A0C460BCE428C435A1DA2B415470DCE58
:102F0000429C2109D5A621D49425480BCE428CD0D1
:102F1000711844C700490ACD428C410AFB34084A63
:102F20000BCF42AC418C7BCAB20D4B10CE428C50C1
:102F30004BA24A262659544BC2004C09CE428CB4AF
:102F40005F87014D0E4F428C54DD968A1449916A79
:102F50000D4E0DCE428C50DC94484AB4D1184F0C23
:102F6000CE429C2109FD980C0900500CCE428C41A8
:102F7000098DC392B602510ED63E9C21097D89A4CB
:102F80002419E200520ECE428C41098DC3528B6A45
:102F90004918530FCE429C2109D578885331191214
:102FA00000540A4F428C4316F71B00550ACE428C40
:102FB000D01F93210156114F428C544DB2288BB231
:102FC0004A9884499A01570E4F428CD45324455253
:102FD000A4744B00580E4F428C544DB24A5AC92A21
:102FE000A91A590C4F428C544DB24A1A77035A0A07
:102FF000CE428C6BD86B3A0C5B094C438C41EBDBBB
:10300000105C094F428C38EF73005D09CC428C2173
:10301000EBDB205E089D5AAC2CA9055F070F3E8CA8
:103020004300600692638C28610CB6429C214E8658
:1030300051539600620DCE428CB465D14471531643
:1030400000630CB6429C2109D562322400640BCE89
:1030500042DC96451B6DCA12650DB6429C2109875C
:10306000410D932101660DCE42AC294BD27090D216
:103070004600670FC63A9C454BB2688A87244C8647
:1030800004680BCE428CB465D144C700690AC542BE
:10309000AC1C113B0D026A0CD53ACC1C111B352D12
:1030A00059006B0ECE428CB42D89A22DAA25610049
:1030B0006C09CD421CB19F06016D0E37428C4589CB
:1030C000222992222952036E0AB6428C64D144C747
:1030D000006F0BB6429C21091D932101700DC63A69
:1030E0008C64D1C44D59D22A00710BC63A9C451B41
:1030F0003565491B720AB6428C64CA92B411730DCD
:10310000B6429C2109135909932101740CC6429CB3
:10311000341CA4B42D5A00750EB6428C2CC9922CC6
:10312000C9922C5A02760BB5428CCC9694922C0202
:10313000770C37428CD4144991D22D01780CB642C9
:103140008C308932518B9230790DC63A8CD04D59E2
:1031500052311912007A08B6428C63C7617B0C4D5C
:1031600043AC254C23350BD3017C06C9438C077D2A
:103170000CCD428C35CC52290D93097E099D5A9C69
:103180004849A404A005006E0CA108C9438C64182A
:1031900002A20EC546AC6CA928511225952D02A39A
:1031A0000D4F42BCAD94AE71555B1600A40CB646F3
:1031B0008C3019A24E431206A5104F428C544DB2CA
:1031C0004A3688E120C61900A608C9438C21190295
:1031D000A70E54431C251295484A44295100A807BC
:1031E00014638C480AA9114F46ACAD12454A45C933
:1031F000948A54C9B209AA0CBD4A9C3519B46448D2
:103200000701AB0C3F46BCA81FA3300AA300AC07C4
:10321000A6468C6B03AD060C538C21AE104F46AC0A
:10322000AD12454A45A998946ED904AF068E628CBA
:1032300003B00924571C25921205B10BBD46AC30D2
:103240001AA4301F04B20BB4521C25CA12251B024B
:10325000B30AB4521C252A4A8902B40692631C059B
:10326000B50ABE3E8CD0715AAC00B613CE429C61FA
:103270005092255922254BB2244BB22401B7068A1D
:10328000530C01B806923B9C01B908B3529C446AA6
:1032900019BA0AB44E1C2592127508BB0C3F468C15
:1032A000288CC2288CFA0DBC0F57429C546E1C22ED
:1032B00031C9A24C4905BD0E57429C546E52862816
:1032C0000EC57808BE1157421C314AF32CAA486239
:1032D000924599920ABF0DCE42AC1C4CC36A282677
:1032E0004302C00FD642AC38C7B42809C56110C527
:1032F00000C10FD642BC3007B52809C56110C50012
:10330000C20FD6422C2DCA212D4A4271184431C316
:103310000FD6421CC90E6951128AC3208A01C40FFC
:10332000D6429CA81DD2A2241487411403C50FD6EF
:10333000422C2DCA442D4A4271184431C6134F42C3
:103340001C6588B2288BB26819B2288BB26808C78E
:103350000DDE3A9C2109D51E9321AC01C80FD6423F
:10336000AC384786214D87284D8701C90FD642BC0E
:10337000308786214D87284D8701CA0FD6422C2DD4
:10338000CA87214D87284D8701CB0ED6429CA87D48
:1033900018D27488D27418CC0BD5429C341FA4B0B8
:1033A000D320CD0BD542BCFA20859D0601CE0BD58E
:1033B000422CA93A4861A741CF0CD5428C4C4B070F
:1033C00029EC3408D0134F429C212B85493864499D
:1033D000988449160D1100D11157421C298974286F
:1033E0001D954C8AB4445C03D20E5742AC3C07078F
:1033F00025F59A0C0A00D30E5742CC34070725F561
:103400009A0C0A00D40E57423C31CAA14149BD264C
:103410008302D50F57421C2989746C5052AFC9A042
:1034200000D60F57429C2CCA72685052AFC9A000F8
:10343000D70CB6468C308932518B9230D814DE3E90
:10344000DC6448B229911225522225DA92214901E1
:10345000D90CD6429C3887421F932101DA0CD64200
:10346000BC3087421F932101DB0CD6422C2DCA436E
:103470001F932101DC0CD6429CA83DF431191200A7
:10348000DD0BD542BC7AA625B5B009DE0DCE428C47
:10349000745042E3B0A45500DF10CE429C294BB2D9
:1034A00024AA6491125A1600E00ECE42AC388786E8
:1034B0003819464D5902E10DCE42CC3A34C4C930D8
:1034C0006ACA12E20FCE422C2DCA91214E86515368
:1034D0009600E30ECE421CC98E0C71328C9AB20457
:1034E000E40ECE429CA81D19E26418356509E50F6B
:1034F000D6422C2DCA7468889361D49425E60E3781
:10350000421C63940C4A9445150B00E70DC63A9C87
:103510002109D56232843500E80FCE42AC38878667
:10352000241C06354C8604E90FCE42BC30C78624E5
:103530001C06354C8604EA10CE422C2DCA91210976
:1035400087410D932101EB10CE429CA81D1992706A
:1035500018D430191200EC0BCD429C3447C44E8372
:1035600000ED0BCD42AC2C87C44E8300EE0ACD4259
:103570001CA92E761A04EF0BCD428C288972B1D388
:1035800020F010D6429C28D392381A92D0311912CA
:1035900000F10BCE421CC99E2C9AE818F20DCE42C7
:1035A0009C38C78624744C8604F30DCE42BC30C7C9
:1035B0008624744C8604F40ECE422C2DCA91210927
:1035C0001D932101F50ECE421CC98E0C49E8980CC2
:1035D0000900F60ECE429CA81D1992D03119120096
:1035E000F70ABD46AC301FF43002F80FC63EDC646B
:1035F00048B22951A22D199214F910CE429C388755
:10360000B2244BB2244BB26809FA10CE42BC3087C8
:10361000B2244BB2244BB26809FB10CE422C2DCA07
:10362000B3244BB2244BB26809FC11CE429C5A928F
:103630002359922559922559B404FD0FDE3ABC3026
:103640008742376549C5644800FE0ED63A8CB4B24D
:1036500068A2B8294B9A02FF0EDE3A9CA83D74532B
:1036600096544C860400000004FFFF000000000098
:10367000BB1F0008BF1F0008DF1A00081815AF198C
:10368000FF1815AE19FF1815A115C819FF1815A0B8
:1036900015C019FF1815A115C019FF1815A015C8D8
:1036A00019FF1815AE15D5168015A8163F15D31697
:1036B000001540158D16141520160015A115C815F6
:1036C000DA1612158116CF15D916F115DB1640152D
:1036D0002E15A415A619FF1815AE15D5168015A818
:1036E000163F15D316001540158D1614152016001B
:1036F00015A115C815DA1612158116EF15D916A1E0
:1037000015DB1600152E15A415A619FF1815AE15F4
:10371000D5168015A8163F15D316001540158D1621
:10372000141520160015A115C815DA1602158116F4
:10373000CF15D916F115DB1640152E15A415A619AF
:10374000FF1815AE15A415D5165015A8163F15D39C
:103750001600154015AD168B15D9162215DB16353A
:103760001532158116FF15A615DA161219FF181550
:10377000AE15D5168015A8163F15D31600154015A1
:103780008D16141520160015A115C015DA16121580
:103790008116CF15D916F115DB1640152E15A41577
:1037A000A619FF000001140A6464323200127A0084
:1037B0000004289610080000800040000001140A50
:1037C0006464323200093D000004289610080202A9
:1037D00080004000F43700080000002018000000BE
:1037E000280100080C38000818000020800B000099
:1037F000440100080100000010000000000000006B
:0C38000000127A00000000000000000030
:04000005080000ED02
:00000001FF
